{
  "_format": "hh-sol-artifact-1",
  "contractName": "DLOBEX",
  "sourceName": "contracts/DLOBEX.sol",
  "abi": [
    {
      "inputs": [
        {
          "internalType": "address",
          "name": "token_base_address",
          "type": "address"
        },
        {
          "internalType": "address",
          "name": "token_term_address",
          "type": "address"
        }
      ],
      "stateMutability": "nonpayable",
      "type": "constructor"
    },
    {
      "anonymous": false,
      "inputs": [
        {
          "components": [
            {
              "internalType": "uint256",
              "name": "id_int",
              "type": "uint256"
            },
            {
              "internalType": "uint256",
              "name": "id_ext",
              "type": "uint256"
            },
            {
              "internalType": "address",
              "name": "owner",
              "type": "address"
            },
            {
              "internalType": "bool",
              "name": "is_buy",
              "type": "bool"
            },
            {
              "internalType": "uint256",
              "name": "size",
              "type": "uint256"
            },
            {
              "internalType": "uint256",
              "name": "price",
              "type": "uint256"
            }
          ],
          "indexed": false,
          "internalType": "struct DLOBEX.Order",
          "name": "order",
          "type": "tuple"
        }
      ],
      "name": "OrderPlacedEvent",
      "type": "event"
    },
    {
      "anonymous": false,
      "inputs": [
        {
          "components": [
            {
              "internalType": "uint256",
              "name": "id_int",
              "type": "uint256"
            },
            {
              "internalType": "uint256",
              "name": "id_ext",
              "type": "uint256"
            },
            {
              "internalType": "address",
              "name": "owner",
              "type": "address"
            },
            {
              "internalType": "bool",
              "name": "is_buy",
              "type": "bool"
            },
            {
              "internalType": "uint256",
              "name": "size",
              "type": "uint256"
            },
            {
              "internalType": "uint256",
              "name": "price",
              "type": "uint256"
            }
          ],
          "indexed": false,
          "internalType": "struct DLOBEX.Order",
          "name": "order",
          "type": "tuple"
        }
      ],
      "name": "OrderRemovedEvent",
      "type": "event"
    },
    {
      "anonymous": false,
      "inputs": [
        {
          "components": [
            {
              "internalType": "uint256",
              "name": "id_int",
              "type": "uint256"
            },
            {
              "internalType": "uint256",
              "name": "id_ext",
              "type": "uint256"
            },
            {
              "internalType": "address",
              "name": "owner",
              "type": "address"
            },
            {
              "internalType": "bool",
              "name": "is_buy",
              "type": "bool"
            },
            {
              "internalType": "uint256",
              "name": "size",
              "type": "uint256"
            },
            {
              "internalType": "uint256",
              "name": "price",
              "type": "uint256"
            }
          ],
          "indexed": false,
          "internalType": "struct DLOBEX.Order",
          "name": "order",
          "type": "tuple"
        }
      ],
      "name": "OrderUpdatedEvent",
      "type": "event"
    },
    {
      "anonymous": false,
      "inputs": [
        {
          "indexed": true,
          "internalType": "address",
          "name": "previousOwner",
          "type": "address"
        },
        {
          "indexed": true,
          "internalType": "address",
          "name": "newOwner",
          "type": "address"
        }
      ],
      "name": "OwnershipTransferred",
      "type": "event"
    },
    {
      "anonymous": false,
      "inputs": [
        {
          "indexed": false,
          "internalType": "address",
          "name": "adr",
          "type": "address"
        }
      ],
      "name": "ParticipantAddedEvent",
      "type": "event"
    },
    {
      "anonymous": false,
      "inputs": [
        {
          "indexed": false,
          "internalType": "address",
          "name": "adr",
          "type": "address"
        }
      ],
      "name": "ParticipantRemovedEvent",
      "type": "event"
    },
    {
      "anonymous": false,
      "inputs": [
        {
          "indexed": false,
          "internalType": "address",
          "name": "adr1",
          "type": "address"
        },
        {
          "indexed": false,
          "internalType": "uint256",
          "name": "token1_amount",
          "type": "uint256"
        },
        {
          "indexed": false,
          "internalType": "address",
          "name": "token1",
          "type": "address"
        },
        {
          "indexed": false,
          "internalType": "address",
          "name": "adr2",
          "type": "address"
        },
        {
          "indexed": false,
          "internalType": "uint256",
          "name": "token2_amount",
          "type": "uint256"
        },
        {
          "indexed": false,
          "internalType": "address",
          "name": "token2",
          "type": "address"
        },
        {
          "indexed": false,
          "internalType": "uint256",
          "name": "price",
          "type": "uint256"
        }
      ],
      "name": "SettlementInstruction",
      "type": "event"
    },
    {
      "anonymous": false,
      "inputs": [],
      "name": "TradingStartedEvent",
      "type": "event"
    },
    {
      "anonymous": false,
      "inputs": [],
      "name": "TradingStoppedEvent",
      "type": "event"
    },
    {
      "inputs": [
        {
          "internalType": "address",
          "name": "participant",
          "type": "address"
        }
      ],
      "name": "add_participant",
      "outputs": [],
      "stateMutability": "nonpayable",
      "type": "function"
    },
    {
      "inputs": [
        {
          "internalType": "uint256",
          "name": "price",
          "type": "uint256"
        },
        {
          "internalType": "bool",
          "name": "is_buy",
          "type": "bool"
        }
      ],
      "name": "add_price",
      "outputs": [],
      "stateMutability": "nonpayable",
      "type": "function"
    },
    {
      "inputs": [],
      "name": "base_token",
      "outputs": [
        {
          "internalType": "address",
          "name": "",
          "type": "address"
        }
      ],
      "stateMutability": "view",
      "type": "function"
    },
    {
      "inputs": [
        {
          "internalType": "bool",
          "name": "is_buy",
          "type": "bool"
        }
      ],
      "name": "best_price",
      "outputs": [
        {
          "internalType": "uint256",
          "name": "",
          "type": "uint256"
        }
      ],
      "stateMutability": "view",
      "type": "function"
    },
    {
      "inputs": [
        {
          "internalType": "uint256",
          "name": "price",
          "type": "uint256"
        }
      ],
      "name": "buy_order_ids",
      "outputs": [
        {
          "internalType": "uint256[]",
          "name": "",
          "type": "uint256[]"
        }
      ],
      "stateMutability": "view",
      "type": "function"
    },
    {
      "inputs": [],
      "name": "buy_prices",
      "outputs": [
        {
          "internalType": "uint256[]",
          "name": "",
          "type": "uint256[]"
        }
      ],
      "stateMutability": "view",
      "type": "function"
    },
    {
      "inputs": [],
      "name": "debug",
      "outputs": [
        {
          "internalType": "string",
          "name": "",
          "type": "string"
        }
      ],
      "stateMutability": "view",
      "type": "function"
    },
    {
      "inputs": [],
      "name": "get_base_fee",
      "outputs": [
        {
          "internalType": "uint256",
          "name": "",
          "type": "uint256"
        }
      ],
      "stateMutability": "view",
      "type": "function"
    },
    {
      "inputs": [],
      "name": "get_number_of_settlements",
      "outputs": [
        {
          "internalType": "uint256",
          "name": "",
          "type": "uint256"
        }
      ],
      "stateMutability": "view",
      "type": "function"
    },
    {
      "inputs": [
        {
          "internalType": "uint256",
          "name": "id",
          "type": "uint256"
        }
      ],
      "name": "get_order",
      "outputs": [
        {
          "internalType": "uint256",
          "name": "",
          "type": "uint256"
        },
        {
          "internalType": "address",
          "name": "",
          "type": "address"
        },
        {
          "internalType": "bool",
          "name": "",
          "type": "bool"
        },
        {
          "internalType": "uint256",
          "name": "",
          "type": "uint256"
        },
        {
          "internalType": "uint256",
          "name": "",
          "type": "uint256"
        }
      ],
      "stateMutability": "view",
      "type": "function"
    },
    {
      "inputs": [
        {
          "internalType": "uint256",
          "name": "index",
          "type": "uint256"
        }
      ],
      "name": "get_settlement",
      "outputs": [
        {
          "internalType": "address",
          "name": "adr1",
          "type": "address"
        },
        {
          "internalType": "uint256",
          "name": "token1_amount",
          "type": "uint256"
        },
        {
          "internalType": "address",
          "name": "token1",
          "type": "address"
        },
        {
          "internalType": "address",
          "name": "adr2",
          "type": "address"
        },
        {
          "internalType": "uint256",
          "name": "token2_amount",
          "type": "uint256"
        },
        {
          "internalType": "address",
          "name": "token2",
          "type": "address"
        },
        {
          "internalType": "uint256",
          "name": "price",
          "type": "uint256"
        }
      ],
      "stateMutability": "view",
      "type": "function"
    },
    {
      "inputs": [],
      "name": "get_term_fee",
      "outputs": [
        {
          "internalType": "uint256",
          "name": "",
          "type": "uint256"
        }
      ],
      "stateMutability": "view",
      "type": "function"
    },
    {
      "inputs": [
        {
          "internalType": "address",
          "name": "participant",
          "type": "address"
        }
      ],
      "name": "is_participant_allowed",
      "outputs": [
        {
          "internalType": "bool",
          "name": "",
          "type": "bool"
        }
      ],
      "stateMutability": "view",
      "type": "function"
    },
    {
      "inputs": [],
      "name": "is_trading_allowed",
      "outputs": [
        {
          "internalType": "bool",
          "name": "",
          "type": "bool"
        }
      ],
      "stateMutability": "view",
      "type": "function"
    },
    {
      "inputs": [],
      "name": "last_traded_price",
      "outputs": [
        {
          "internalType": "uint256",
          "name": "",
          "type": "uint256"
        }
      ],
      "stateMutability": "view",
      "type": "function"
    },
    {
      "inputs": [],
      "name": "owner",
      "outputs": [
        {
          "internalType": "address",
          "name": "",
          "type": "address"
        }
      ],
      "stateMutability": "view",
      "type": "function"
    },
    {
      "inputs": [
        {
          "internalType": "uint256",
          "name": "ext_order_id",
          "type": "uint256"
        },
        {
          "internalType": "bool",
          "name": "is_buy",
          "type": "bool"
        },
        {
          "internalType": "uint256",
          "name": "amount",
          "type": "uint256"
        },
        {
          "internalType": "uint256",
          "name": "price",
          "type": "uint256"
        }
      ],
      "name": "place_limit_order",
      "outputs": [],
      "stateMutability": "nonpayable",
      "type": "function"
    },
    {
      "inputs": [
        {
          "internalType": "bool",
          "name": "is_buy",
          "type": "bool"
        },
        {
          "internalType": "uint256",
          "name": "amount",
          "type": "uint256"
        }
      ],
      "name": "place_market_order",
      "outputs": [],
      "stateMutability": "nonpayable",
      "type": "function"
    },
    {
      "inputs": [],
      "name": "print_clob",
      "outputs": [],
      "stateMutability": "view",
      "type": "function"
    },
    {
      "inputs": [
        {
          "internalType": "address",
          "name": "participant",
          "type": "address"
        }
      ],
      "name": "remove_participant",
      "outputs": [],
      "stateMutability": "nonpayable",
      "type": "function"
    },
    {
      "inputs": [],
      "name": "renounceOwnership",
      "outputs": [],
      "stateMutability": "nonpayable",
      "type": "function"
    },
    {
      "inputs": [],
      "name": "reset",
      "outputs": [],
      "stateMutability": "nonpayable",
      "type": "function"
    },
    {
      "inputs": [
        {
          "internalType": "uint256",
          "name": "price",
          "type": "uint256"
        }
      ],
      "name": "sell_order_ids",
      "outputs": [
        {
          "internalType": "uint256[]",
          "name": "",
          "type": "uint256[]"
        }
      ],
      "stateMutability": "view",
      "type": "function"
    },
    {
      "inputs": [],
      "name": "sell_prices",
      "outputs": [
        {
          "internalType": "uint256[]",
          "name": "",
          "type": "uint256[]"
        }
      ],
      "stateMutability": "view",
      "type": "function"
    },
    {
      "inputs": [
        {
          "internalType": "uint256",
          "name": "fee",
          "type": "uint256"
        }
      ],
      "name": "set_base_fee",
      "outputs": [],
      "stateMutability": "nonpayable",
      "type": "function"
    },
    {
      "inputs": [
        {
          "internalType": "uint256",
          "name": "fee",
          "type": "uint256"
        }
      ],
      "name": "set_term_fee",
      "outputs": [],
      "stateMutability": "nonpayable",
      "type": "function"
    },
    {
      "inputs": [],
      "name": "start_trading",
      "outputs": [],
      "stateMutability": "nonpayable",
      "type": "function"
    },
    {
      "inputs": [],
      "name": "stop_trading",
      "outputs": [],
      "stateMutability": "nonpayable",
      "type": "function"
    },
    {
      "inputs": [],
      "name": "term_token",
      "outputs": [
        {
          "internalType": "address",
          "name": "",
          "type": "address"
        }
      ],
      "stateMutability": "view",
      "type": "function"
    },
    {
      "inputs": [
        {
          "internalType": "address",
          "name": "newOwner",
          "type": "address"
        }
      ],
      "name": "transferOwnership",
      "outputs": [],
      "stateMutability": "nonpayable",
      "type": "function"
    },
    {
      "inputs": [
        {
          "internalType": "uint256",
          "name": "ext_order_id",
          "type": "uint256"
        },
        {
          "internalType": "bool",
          "name": "is_buy",
          "type": "bool"
        },
        {
          "internalType": "uint256",
          "name": "amount",
          "type": "uint256"
        },
        {
          "internalType": "uint256",
          "name": "price",
          "type": "uint256"
        }
      ],
      "name": "validate_limit_order",
      "outputs": [],
      "stateMutability": "view",
      "type": "function"
    }
  ],
  "bytecode": "0x60806040526000600560006101000a81548160ff02191690831515021790555060006006556000600755600060085560016009553480156200004057600080fd5b506040516200571d3803806200571d833981810160405281019062000066919062000234565b620000866200007a6200015160201b60201c565b6200015960201b60201c565b33600160006101000a81548173ffffffffffffffffffffffffffffffffffffffff021916908373ffffffffffffffffffffffffffffffffffffffff16021790555081600260006101000a81548173ffffffffffffffffffffffffffffffffffffffff021916908373ffffffffffffffffffffffffffffffffffffffff16021790555080600360006101000a81548173ffffffffffffffffffffffffffffffffffffffff021916908373ffffffffffffffffffffffffffffffffffffffff1602179055505050620002c3565b600033905090565b60008060009054906101000a900473ffffffffffffffffffffffffffffffffffffffff169050816000806101000a81548173ffffffffffffffffffffffffffffffffffffffff021916908373ffffffffffffffffffffffffffffffffffffffff1602179055508173ffffffffffffffffffffffffffffffffffffffff168173ffffffffffffffffffffffffffffffffffffffff167f8be0079c531659141344cd1fd0a4f28419497f9722a3daafe3b4186f6b6457e060405160405180910390a35050565b6000815190506200022e81620002a9565b92915050565b600080604083850312156200024857600080fd5b600062000258858286016200021d565b92505060206200026b858286016200021d565b9150509250929050565b6000620002828262000289565b9050919050565b600073ffffffffffffffffffffffffffffffffffffffff82169050919050565b620002b48162000275565b8114620002c057600080fd5b50565b61544a80620002d36000396000f3fe608060405234801561001057600080fd5b50600436106101e55760003560e01c8063979941071161010f578063c763f315116100a2578063e9303c6f11610071578063e9303c6f14610504578063f0ac025014610522578063f2fde38b14610552578063f7bb9aac1461056e576101e5565b8063c763f3151461048c578063d1305252146104c2578063d826f88f146104de578063e07daf09146104e8576101e5565b8063b66ad02b116100de578063b66ad02b1461042a578063bf94e2e614610448578063c39650bd14610466578063c723460014610482576101e5565b806397994107146103b85780639e5035ed146103d4578063ae2c8b2214610404578063b4a803ff14610420576101e5565b80635fcb317c1161018757806375ce738e1161015657806375ce738e1461032e57806375eb7e881461034c5780638da5cb5b1461036a578063916a250c14610388576101e5565b80635fcb317c146102b65780636b687e4c146102ea57806370b5966e14610308578063715018a614610324576101e5565b806349f4d437116101c357806349f4d4371461022e57806352ada1ab1461024c578063588ee29b1461027c5780635ebf77d81461029a576101e5565b8063058bb53f146101ea5780630ec9a2ab146102085780632efc65d414610224575b600080fd5b6101f261058c565b6040516101ff9190614b93565b60405180910390f35b610222600480360381019061021d9190614345565b610596565b005b61022c610eeb565b005b610236610fb0565b6040516102439190614b93565b60405180910390f35b61026660048036038101906102619190614200565b610fba565b6040516102739190614920565b60405180910390f35b610284611010565b604051610291919061493b565b60405180910390f35b6102b460048036038101906102af9190614345565b6110a2565b005b6102d060048036038101906102cb91906142b7565b6111fb565b6040516102e1959493929190614bae565b60405180910390f35b6102f2611273565b6040516102ff9190614b93565b60405180910390f35b610322600480360381019061031d91906142b7565b611280565b005b61032c611306565b005b61033661138e565b6040516103439190614814565b60405180910390f35b6103546113b8565b6040516103619190614b93565b60405180910390f35b6103726113c2565b60405161037f9190614814565b60405180910390f35b6103a2600480360381019061039d91906142b7565b6113eb565b6040516103af91906148fe565b60405180910390f35b6103d260048036038101906103cd919061427b565b611456565b005b6103ee60048036038101906103e99190614229565b61184c565b6040516103fb9190614b93565b60405180910390f35b61041e60048036038101906104199190614309565b611922565b005b610428611d0f565b005b610432611dd4565b60405161043f91906148fe565b60405180910390f35b610450611e2c565b60405161045d9190614920565b60405180910390f35b610480600480360381019061047b9190614200565b611e43565b005b61048a611f51565b005b6104a660048036038101906104a191906142b7565b61219d565b6040516104b9979695949392919061488f565b60405180910390f35b6104dc60048036038101906104d79190614200565b6122b0565b005b6104e66123be565b005b61050260048036038101906104fd91906142b7565b612605565b005b61050c61268b565b6040516105199190614814565b60405180910390f35b61053c600480360381019061053791906142b7565b6126b5565b60405161054991906148fe565b60405180910390f35b61056c60048036038101906105679190614200565b612720565b005b610576612818565b60405161058391906148fe565b60405180910390f35b6000600754905090565b60405180602001604052806000815250601190805190602001906105bb929190613f49565b50600560009054906101000a900460ff1661060b576040517f08c379a000000000000000000000000000000000000000000000000000000000815260040161060290614b3d565b60405180910390fd5b600460003373ffffffffffffffffffffffffffffffffffffffff1673ffffffffffffffffffffffffffffffffffffffff16815260200190815260200160002060009054906101000a900460ff16610697576040517f08c379a000000000000000000000000000000000000000000000000000000000815260040161068e90614add565b60405180910390fd5b6040518060400160405280601681526020017f76616c69646174696e67206c696d6974206f7264657200000000000000000000815250601190805190602001906106e2929190613f49565b506106ef848484846110a2565b6040518060400160405280601581526020017f76616c696461746564206c696d6974206f7264657200000000000000000000008152506011908051906020019061073a929190613f49565b5060006107478415612870565b90506040518060400160405280601b81526020017f6372656174696e67206d656d6f7279206c696d6974206f72646572000000000081525060119080519060200190610794929190613f49565b5060006107a4338787878761288b565b90506040518060400160405280601381526020017f63726561746564206c696d6974206f7264657200000000000000000000000000815250601190805190602001906107f1929190613f49565b50600082600085815260200190815260200160002080549050148061081f57508261081c861561184c565b14155b156109155760405180606001604052806027815260200161531e6027913960119080519060200190610852929190613f49565b5061085c81612900565b6040518060600160405280603781526020016153de603791396011908051906020019061088a929190613f49565b507f386fb813d2c4c2620a12432535c84a9c5ad55d10c9fca0c7c391f7ee3dc24230816040516108ba9190614b5d565b60405180910390a16040518060400160405280601881526020017f656d6974746564204f72646572506c616365644576656e7400000000000000008152506011908051906020019061090d929190613f49565b505050610ee5565b6040518060400160405280601081526020017f6d617463686564207363656e6172696f0000000000000000000000000000000081525060119080519060200190610960929190613f49565b5082600881905550600082600085815260200190815260200160002090506000818054905067ffffffffffffffff8111156109c4577f4e487b7100000000000000000000000000000000000000000000000000000000600052604160045260246000fd5b6040519080825280602002602001820160405280156109f25781602001602082028036833780820191505090505b50905060005b8280549050811015610aa057828181548110610a3d577f4e487b7100000000000000000000000000000000000000000000000000000000600052603260045260246000fd5b9060005260206000200154828281518110610a81577f4e487b7100000000000000000000000000000000000000000000000000000000600052603260045260246000fd5b6020026020010181815250508080610a9890614e6c565b9150506109f8565b50600086905060005b825181108015610ab95750600082115b15610e4b576000600a6000858481518110610afd577f4e487b7100000000000000000000000000000000000000000000000000000000600052603260045260246000fd5b6020026020010151815260200190815260200160002090508060020160009054906101000a900473ffffffffffffffffffffffffffffffffffffffff1673ffffffffffffffffffffffffffffffffffffffff163373ffffffffffffffffffffffffffffffffffffffff161415610ba8576040517f08c379a0000000000000000000000000000000000000000000000000000000008152600401610b9f90614a5d565b60405180910390fd5b80600301548310610c4f57610bd281600001548260020160149054906101000a900460ff16612a32565b6040518060600160405280602c8152602001615345602c913960119080519060200190610c00929190613f49565b507f6b95666e21f5702b320e6f0e0aa93c1f07826da7a22202af7e5c1923696314f881604051610c309190614b78565b60405180910390a1806003015483610c489190614d06565b9250610dfe565b60006040518060c0016040528083600001548152602001836001015481526020018360020160009054906101000a900473ffffffffffffffffffffffffffffffffffffffff1673ffffffffffffffffffffffffffffffffffffffff1681526020018360020160149054906101000a900460ff1615158152602001858460030154610cd99190614d06565b8152602001836004015481525090506000935080600a600084600001548152602001908152602001600020600082015181600001556020820151816001015560408201518160020160006101000a81548173ffffffffffffffffffffffffffffffffffffffff021916908373ffffffffffffffffffffffffffffffffffffffff16021790555060608201518160020160146101000a81548160ff0219169083151502179055506080820151816003015560a082015181600401559050506040518060600160405280603781526020016153a76037913960119080519060200190610dc4929190613f49565b507f6b95666e21f5702b320e6f0e0aa93c1f07826da7a22202af7e5c1923696314f881604051610df49190614b5d565b60405180910390a1505b610e378160020160009054906101000a900473ffffffffffffffffffffffffffffffffffffffff1687604001518c84600301548c612a54565b508080610e4390614e6c565b915050610aa9565b506000811115610ed7576000610e64338b8b858b61288b565b9050610e6f81612900565b6040518060600160405280603681526020016153716036913960119080519060200190610e9d929190613f49565b507f386fb813d2c4c2620a12432535c84a9c5ad55d10c9fca0c7c391f7ee3dc2423081604051610ecd9190614b5d565b60405180910390a1505b610edf613780565b50505050505b50505050565b610ef36139c4565b73ffffffffffffffffffffffffffffffffffffffff16610f116113c2565b73ffffffffffffffffffffffffffffffffffffffff1614610f67576040517f08c379a0000000000000000000000000000000000000000000000000000000008152600401610f5e90614abd565b60405180910390fd5b6000600560006101000a81548160ff0219169083151502179055507fa2e85f0a9f88677f3b0cbb59e20653d40901cbe82066aff22044b134e3a5a3ae60405160405180910390a1565b6000600654905090565b6000600460008373ffffffffffffffffffffffffffffffffffffffff1673ffffffffffffffffffffffffffffffffffffffff16815260200190815260200160002060009054906101000a900460ff169050919050565b60606011805461101f90614dec565b80601f016020809104026020016040519081016040528092919081815260200182805461104b90614dec565b80156110985780601f1061106d57610100808354040283529160200191611098565b820191906000526020600020905b81548152906001019060200180831161107b57829003601f168201915b5050505050905090565b6110ab826139cc565b600081116110ee576040517f08c379a00000000000000000000000000000000000000000000000000000000081526004016110e5906149dd565b60405180910390fd5b6000600b60008681526020019081526020016000205414611144576040517f08c379a000000000000000000000000000000000000000000000000000000000815260040161113b9061497d565b60405180910390fd5b6000611150841561184c565b9050600081141561116157506111f5565b83156111af57808211156111aa576040517f08c379a00000000000000000000000000000000000000000000000000000000081526004016111a190614afd565b60405180910390fd5b6111f3565b808210156111f2576040517f08c379a00000000000000000000000000000000000000000000000000000000081526004016111e9906149bd565b60405180910390fd5b5b505b50505050565b600080600080600080600a6000888152602001908152602001600020905080600101548160020160009054906101000a900473ffffffffffffffffffffffffffffffffffffffff168260020160149054906101000a900460ff1683600401548460030154955095509550955095505091939590929450565b6000601080549050905090565b6112886139c4565b73ffffffffffffffffffffffffffffffffffffffff166112a66113c2565b73ffffffffffffffffffffffffffffffffffffffff16146112fc576040517f08c379a00000000000000000000000000000000000000000000000000000000081526004016112f390614abd565b60405180910390fd5b8060068190555050565b61130e6139c4565b73ffffffffffffffffffffffffffffffffffffffff1661132c6113c2565b73ffffffffffffffffffffffffffffffffffffffff1614611382576040517f08c379a000000000000000000000000000000000000000000000000000000000815260040161137990614abd565b60405180910390fd5b61138c6000613a12565b565b6000600260009054906101000a900473ffffffffffffffffffffffffffffffffffffffff16905090565b6000600854905090565b60008060009054906101000a900473ffffffffffffffffffffffffffffffffffffffff16905090565b6060600c600083815260200190815260200160002080548060200260200160405190810160405280929190818152602001828054801561144a57602002820191906000526020600020905b815481526020019060010190808311611436575b50505050509050919050565b604051806020016040528060008152506011908051906020019061147b929190613f49565b50600560009054906101000a900460ff166114cb576040517f08c379a00000000000000000000000000000000000000000000000000000000081526004016114c290614b3d565b60405180910390fd5b600460003373ffffffffffffffffffffffffffffffffffffffff1673ffffffffffffffffffffffffffffffffffffffff16815260200190815260200160002060009054906101000a900460ff16611557576040517f08c379a000000000000000000000000000000000000000000000000000000000815260040161154e90614add565b60405180910390fd5b61156081613ad6565b600061156c8315613ae2565b9050600061157a8415612870565b905060008390506000805b84805490508110156118435760008460008784815481106115cf577f4e487b7100000000000000000000000000000000000000000000000000000000600052603260045260246000fd5b90600052602060002001548152602001908152602001600020905060005b8180549050811015611822576000600a6000848481548110611638577f4e487b7100000000000000000000000000000000000000000000000000000000600052603260045260246000fd5b906000526020600020015481526020019081526020016000209050806003015486116117dc57806003015486141561168e5761168981600001548260020160149054906101000a900460ff16612a32565b6117d3565b60006040518060c0016040528083600001548152602001836001015481526020018360020160009054906101000a900473ffffffffffffffffffffffffffffffffffffffff1673ffffffffffffffffffffffffffffffffffffffff1681526020018360020160149054906101000a900460ff16151581526020018884600301546117189190614d06565b81526020018360040154815250905080600a600083600001518152602001908152602001600020600082015181600001556020820151816001015560408201518160020160006101000a81548173ffffffffffffffffffffffffffffffffffffffff021916908373ffffffffffffffffffffffffffffffffffffffff16021790555060608201518160020160146101000a81548160ff0219169083151502179055506080820151816003015560a08201518160040155905050505b6001945061180e565b8060030154866117ec9190614d06565b955061180d81600001548260020160149054906101000a900460ff16612a32565b5b50808061181a90614e6c565b9150506115ed565b50821561182f5750611843565b50808061183b90614e6c565b915050611585565b50505050505050565b6000806000905082801561186557506000600d80549050115b156118b757600d6000815481106118a5577f4e487b7100000000000000000000000000000000000000000000000000000000600052603260045260246000fd5b90600052602060002001549050611919565b821580156118ca57506000600f80549050115b1561191857600f60008154811061190a577f4e487b7100000000000000000000000000000000000000000000000000000000600052603260045260246000fd5b906000526020600020015490505b5b80915050919050565b600061192d82613ae2565b905060008060005b8380549050811015611a615783818154811061197a577f4e487b7100000000000000000000000000000000000000000000000000000000600052603260045260246000fd5b90600052602060002001548614156119955750505050611d0b565b846119f6578381815481106119d3577f4e487b7100000000000000000000000000000000000000000000000000000000600052603260045260246000fd5b90600052602060002001548610156119f15780925060019150611a61565b611a4e565b838181548110611a2f577f4e487b7100000000000000000000000000000000000000000000000000000000600052603260045260246000fd5b9060005260206000200154861115611a4d5780925060019150611a61565b5b8080611a5990614e6c565b915050611935565b5080611a945782859080600181540180825580915050600190039060005260206000200160009091909190915055611d07565b600060018480549050611aa79190614c56565b67ffffffffffffffff811115611ae6577f4e487b7100000000000000000000000000000000000000000000000000000000600052604160045260246000fd5b604051908082528060200260200182016040528015611b145781602001602082028036833780820191505090505b50905060005b83811015611bbe57848181548110611b5b577f4e487b7100000000000000000000000000000000000000000000000000000000600052603260045260246000fd5b9060005260206000200154828281518110611b9f577f4e487b7100000000000000000000000000000000000000000000000000000000600052603260045260246000fd5b6020026020010181815250508080611bb690614e6c565b915050611b1a565b5085818481518110611bf9577f4e487b7100000000000000000000000000000000000000000000000000000000600052603260045260246000fd5b6020026020010181815250506000600184611c149190614c56565b90505b84805490508111611cca5784600182611c309190614d06565b81548110611c67577f4e487b7100000000000000000000000000000000000000000000000000000000600052603260045260246000fd5b9060005260206000200154828281518110611cab577f4e487b7100000000000000000000000000000000000000000000000000000000600052603260045260246000fd5b6020026020010181815250508080611cc290614e6c565b915050611c17565b508415611ced5780600d9080519060200190611ce7929190613fcf565b50611d05565b80600f9080519060200190611d03929190613fcf565b505b505b5050505b5050565b611d176139c4565b73ffffffffffffffffffffffffffffffffffffffff16611d356113c2565b73ffffffffffffffffffffffffffffffffffffffff1614611d8b576040517f08c379a0000000000000000000000000000000000000000000000000000000008152600401611d8290614abd565b60405180910390fd5b6001600560006101000a81548160ff0219169083151502179055507f8a20996fd734d150d7efe880c7e6057fe37d4446c4d59e79c181a98e344bc96660405160405180910390a1565b6060600d805480602002602001604051908101604052809291908181526020018280548015611e2257602002820191906000526020600020905b815481526020019060010190808311611e0e575b5050505050905090565b6000600560009054906101000a900460ff16905090565b611e4b6139c4565b73ffffffffffffffffffffffffffffffffffffffff16611e696113c2565b73ffffffffffffffffffffffffffffffffffffffff1614611ebf576040517f08c379a0000000000000000000000000000000000000000000000000000000008152600401611eb690614abd565b60405180910390fd5b6001600460008373ffffffffffffffffffffffffffffffffffffffff1673ffffffffffffffffffffffffffffffffffffffff16815260200190815260200160002060006101000a81548160ff0219169083151502179055507fcbfdb4d668880620c7cddca846a22a6ab99471a25a6a522fa18825a523cbbb0f81604051611f469190614814565b60405180910390a150565b60005b600d80549050811015612075576000600c6000600d8481548110611fa1577f4e487b7100000000000000000000000000000000000000000000000000000000600052603260045260246000fd5b9060005260206000200154815260200190815260200160002090506000818054905011156120615760005b818054905081101561205f576000600a6000848481548110612017577f4e487b7100000000000000000000000000000000000000000000000000000000600052603260045260246000fd5b9060005260206000200154815260200190815260200160002090506000816004015411801561204a575060008160030154115b5050808061205790614e6c565b915050611fcc565b505b50808061206d90614e6c565b915050611f54565b5060005b600f8054905081101561219a576000600e6000600f84815481106120c6577f4e487b7100000000000000000000000000000000000000000000000000000000600052603260045260246000fd5b9060005260206000200154815260200190815260200160002090506000818054905011156121865760005b8180549050811015612184576000600a600084848154811061213c577f4e487b7100000000000000000000000000000000000000000000000000000000600052603260045260246000fd5b9060005260206000200154815260200190815260200160002090506000816004015411801561216f575060008160030154115b5050808061217c90614e6c565b9150506120f1565b505b50808061219290614e6c565b915050612079565b50565b600080600080600080600080601089815481106121e3577f4e487b7100000000000000000000000000000000000000000000000000000000600052603260045260246000fd5b906000526020600020906007020190508060000160009054906101000a900473ffffffffffffffffffffffffffffffffffffffff1681600101548260020160009054906101000a900473ffffffffffffffffffffffffffffffffffffffff168360030160009054906101000a900473ffffffffffffffffffffffffffffffffffffffff1684600401548560050160009054906101000a900473ffffffffffffffffffffffffffffffffffffffff168660060154975097509750975097509750975050919395979092949650565b6122b86139c4565b73ffffffffffffffffffffffffffffffffffffffff166122d66113c2565b73ffffffffffffffffffffffffffffffffffffffff161461232c576040517f08c379a000000000000000000000000000000000000000000000000000000000815260040161232390614abd565b60405180910390fd5b6000600460008373ffffffffffffffffffffffffffffffffffffffff1673ffffffffffffffffffffffffffffffffffffffff16815260200190815260200160002060006101000a81548160ff0219169083151502179055507f8a4e1fd7f96382ae7a40bd1a9e48e99015ee199725d45fffeaa35bcd797c5813816040516123b39190614814565b60405180910390a150565b6123c66139c4565b73ffffffffffffffffffffffffffffffffffffffff166123e46113c2565b73ffffffffffffffffffffffffffffffffffffffff161461243a576040517f08c379a000000000000000000000000000000000000000000000000000000000815260040161243190614abd565b60405180910390fd5b60005b60095481116124ca57600a600082815260200190815260200160002060008082016000905560018201600090556002820160006101000a81549073ffffffffffffffffffffffffffffffffffffffff02191690556002820160146101000a81549060ff021916905560038201600090556004820160009055505080806124c290614e6c565b91505061243d565b5060005b600d8054905081101561255157600c6000600d8381548110612519577f4e487b7100000000000000000000000000000000000000000000000000000000600052603260045260246000fd5b90600052602060002001548152602001908152602001600020600061253e919061401c565b808061254990614e6c565b9150506124ce565b50600d6000612560919061401c565b60005b600f805490508110156125e657600e6000600f83815481106125ae577f4e487b7100000000000000000000000000000000000000000000000000000000600052603260045260246000fd5b9060005260206000200154815260200190815260200160002060006125d3919061401c565b80806125de90614e6c565b915050612563565b50600f60006125f5919061401c565b60106000612603919061403d565b565b61260d6139c4565b73ffffffffffffffffffffffffffffffffffffffff1661262b6113c2565b73ffffffffffffffffffffffffffffffffffffffff1614612681576040517f08c379a000000000000000000000000000000000000000000000000000000000815260040161267890614abd565b60405180910390fd5b8060078190555050565b6000600360009054906101000a900473ffffffffffffffffffffffffffffffffffffffff16905090565b6060600e600083815260200190815260200160002080548060200260200160405190810160405280929190818152602001828054801561271457602002820191906000526020600020905b815481526020019060010190808311612700575b50505050509050919050565b6127286139c4565b73ffffffffffffffffffffffffffffffffffffffff166127466113c2565b73ffffffffffffffffffffffffffffffffffffffff161461279c576040517f08c379a000000000000000000000000000000000000000000000000000000000815260040161279390614abd565b60405180910390fd5b600073ffffffffffffffffffffffffffffffffffffffff168173ffffffffffffffffffffffffffffffffffffffff16141561280c576040517f08c379a0000000000000000000000000000000000000000000000000000000008152600401612803906149fd565b60405180910390fd5b61281581613a12565b50565b6060600f80548060200260200160405190810160405280929190818152602001828054801561286657602002820191906000526020600020905b815481526020019060010190808311612852575b5050505050905090565b6000811561288157600c9050612886565b600e90505b919050565b612893614061565b60006040518060c0016040528060095481526020018781526020018873ffffffffffffffffffffffffffffffffffffffff168152602001861515815260200185815260200184815250905060016009546128ed9190614c56565b6009819055508091505095945050505050565b8060000151600b6000836020015181526020019081526020016000208190555080600a600083600001518152602001908152602001600020600082015181600001556020820151816001015560408201518160020160006101000a81548173ffffffffffffffffffffffffffffffffffffffff021916908373ffffffffffffffffffffffffffffffffffffffff16021790555060608201518160020160146101000a81548160ff0219169083151502179055506080820151816003015560a082015181600401559050506129dc8160a001518260600151611922565b60006129eb8260600151612870565b90508060008360a001518152602001908152602001600020826000015190806001815401808255809150506001900390600052602060002001600090919091909150555050565b8015612a4657612a4182613afd565b612a50565b612a4f82613d23565b5b5050565b60008183612a629190614cac565b905083156130f3577f5136f0b0645440da828e58bd4667e082f3323762f139d86b11fea0a7e9a9e7418684600260009054906101000a900473ffffffffffffffffffffffffffffffffffffffff168885600360009054906101000a900473ffffffffffffffffffffffffffffffffffffffff1688604051612ae9979695949392919061488f565b60405180910390a160106040518060e001604052808873ffffffffffffffffffffffffffffffffffffffff168152602001858152602001600260009054906101000a900473ffffffffffffffffffffffffffffffffffffffff1673ffffffffffffffffffffffffffffffffffffffff1681526020018773ffffffffffffffffffffffffffffffffffffffff168152602001838152602001600360009054906101000a900473ffffffffffffffffffffffffffffffffffffffff1673ffffffffffffffffffffffffffffffffffffffff16815260200184815250908060018154018082558091505060019003906000526020600020906007020160009091909190915060008201518160000160006101000a81548173ffffffffffffffffffffffffffffffffffffffff021916908373ffffffffffffffffffffffffffffffffffffffff1602179055506020820151816001015560408201518160020160006101000a81548173ffffffffffffffffffffffffffffffffffffffff021916908373ffffffffffffffffffffffffffffffffffffffff16021790555060608201518160030160006101000a81548173ffffffffffffffffffffffffffffffffffffffff021916908373ffffffffffffffffffffffffffffffffffffffff1602179055506080820151816004015560a08201518160050160006101000a81548173ffffffffffffffffffffffffffffffffffffffff021916908373ffffffffffffffffffffffffffffffffffffffff16021790555060c08201518160060155505082600260009054906101000a900473ffffffffffffffffffffffffffffffffffffffff1673ffffffffffffffffffffffffffffffffffffffff1663dd62ed3e88306040518363ffffffff1660e01b8152600401612d8592919061482f565b60206040518083038186803b158015612d9d57600080fd5b505afa158015612db1573d6000803e3d6000fd5b505050506040513d601f19601f82011682018060405250810190612dd591906142e0565b1015612e16576040517f08c379a0000000000000000000000000000000000000000000000000000000008152600401612e0d9061499d565b60405180910390fd5b80600360009054906101000a900473ffffffffffffffffffffffffffffffffffffffff1673ffffffffffffffffffffffffffffffffffffffff1663dd62ed3e87306040518363ffffffff1660e01b8152600401612e7492919061482f565b60206040518083038186803b158015612e8c57600080fd5b505afa158015612ea0573d6000803e3d6000fd5b505050506040513d601f19601f82011682018060405250810190612ec491906142e0565b1015612f05576040517f08c379a0000000000000000000000000000000000000000000000000000000008152600401612efc90614a7d565b60405180910390fd5b6000600260009054906101000a900473ffffffffffffffffffffffffffffffffffffffff1673ffffffffffffffffffffffffffffffffffffffff166323b872dd8888876040518463ffffffff1660e01b8152600401612f6693929190614858565b602060405180830381600087803b158015612f8057600080fd5b505af1158015612f94573d6000803e3d6000fd5b505050506040513d601f19601f82011682018060405250810190612fb89190614252565b905080612ffa576040517f08c379a0000000000000000000000000000000000000000000000000000000008152600401612ff190614a3d565b60405180910390fd5b600360009054906101000a900473ffffffffffffffffffffffffffffffffffffffff1673ffffffffffffffffffffffffffffffffffffffff166323b872dd8789856040518463ffffffff1660e01b815260040161305993929190614858565b602060405180830381600087803b15801561307357600080fd5b505af1158015613087573d6000803e3d6000fd5b505050506040513d601f19601f820116820180604052508101906130ab9190614252565b9050806130ed576040517f08c379a00000000000000000000000000000000000000000000000000000000081526004016130e490614a9d565b60405180910390fd5b50613778565b7f5136f0b0645440da828e58bd4667e082f3323762f139d86b11fea0a7e9a9e7418682600360009054906101000a900473ffffffffffffffffffffffffffffffffffffffff168887600260009054906101000a900473ffffffffffffffffffffffffffffffffffffffff1688604051613172979695949392919061488f565b60405180910390a160106040518060e001604052808873ffffffffffffffffffffffffffffffffffffffff168152602001838152602001600360009054906101000a900473ffffffffffffffffffffffffffffffffffffffff1673ffffffffffffffffffffffffffffffffffffffff1681526020018773ffffffffffffffffffffffffffffffffffffffff168152602001858152602001600260009054906101000a900473ffffffffffffffffffffffffffffffffffffffff1673ffffffffffffffffffffffffffffffffffffffff16815260200184815250908060018154018082558091505060019003906000526020600020906007020160009091909190915060008201518160000160006101000a81548173ffffffffffffffffffffffffffffffffffffffff021916908373ffffffffffffffffffffffffffffffffffffffff1602179055506020820151816001015560408201518160020160006101000a81548173ffffffffffffffffffffffffffffffffffffffff021916908373ffffffffffffffffffffffffffffffffffffffff16021790555060608201518160030160006101000a81548173ffffffffffffffffffffffffffffffffffffffff021916908373ffffffffffffffffffffffffffffffffffffffff1602179055506080820151816004015560a08201518160050160006101000a81548173ffffffffffffffffffffffffffffffffffffffff021916908373ffffffffffffffffffffffffffffffffffffffff16021790555060c08201518160060155505080600360009054906101000a900473ffffffffffffffffffffffffffffffffffffffff1673ffffffffffffffffffffffffffffffffffffffff1663dd62ed3e88306040518363ffffffff1660e01b815260040161340e92919061482f565b60206040518083038186803b15801561342657600080fd5b505afa15801561343a573d6000803e3d6000fd5b505050506040513d601f19601f8201168201806040525081019061345e91906142e0565b101561349f576040517f08c379a000000000000000000000000000000000000000000000000000000000815260040161349690614a1d565b60405180910390fd5b82600260009054906101000a900473ffffffffffffffffffffffffffffffffffffffff1673ffffffffffffffffffffffffffffffffffffffff1663dd62ed3e87306040518363ffffffff1660e01b81526004016134fd92919061482f565b60206040518083038186803b15801561351557600080fd5b505afa158015613529573d6000803e3d6000fd5b505050506040513d601f19601f8201168201806040525081019061354d91906142e0565b101561358e576040517f08c379a000000000000000000000000000000000000000000000000000000000815260040161358590614b1d565b60405180910390fd5b6000600360009054906101000a900473ffffffffffffffffffffffffffffffffffffffff1673ffffffffffffffffffffffffffffffffffffffff166323b872dd8888856040518463ffffffff1660e01b81526004016135ef93929190614858565b602060405180830381600087803b15801561360957600080fd5b505af115801561361d573d6000803e3d6000fd5b505050506040513d601f19601f820116820180604052508101906136419190614252565b905080613683576040517f08c379a000000000000000000000000000000000000000000000000000000000815260040161367a90614a3d565b60405180910390fd5b600260009054906101000a900473ffffffffffffffffffffffffffffffffffffffff1673ffffffffffffffffffffffffffffffffffffffff166323b872dd8789876040518463ffffffff1660e01b81526004016136e293929190614858565b602060405180830381600087803b1580156136fc57600080fd5b505af1158015613710573d6000803e3d6000fd5b505050506040513d601f19601f820116820180604052508101906137349190614252565b905080613776576040517f08c379a000000000000000000000000000000000000000000000000000000000815260040161376d90614a9d565b60405180910390fd5b505b505050505050565b6040518060400160405280600881526020017f636c65616e5f7570000000000000000000000000000000000000000000000000815250601190805190602001906137cb929190613f49565b5060005b600d805490508110156138c6576000600d8281548110613818577f4e487b7100000000000000000000000000000000000000000000000000000000600052603260045260246000fd5b906000526020600020015490506000600c600083815260200190815260200160002090506000818054905014156138b157600c60008381526020019081526020016000206000613868919061401c565b600d83815481106138a2577f4e487b7100000000000000000000000000000000000000000000000000000000600052603260045260246000fd5b90600052602060002001600090555b505080806138be90614e6c565b9150506137cf565b5060005b600f805490508110156139c1576000600f8281548110613913577f4e487b7100000000000000000000000000000000000000000000000000000000600052603260045260246000fd5b906000526020600020015490506000600e600083815260200190815260200160002090506000818054905014156139ac57600e60008381526020019081526020016000206000613963919061401c565b600f838154811061399d577f4e487b7100000000000000000000000000000000000000000000000000000000600052603260045260246000fd5b90600052602060002001600090555b505080806139b990614e6c565b9150506138ca565b50565b600033905090565b60008111613a0f576040517f08c379a0000000000000000000000000000000000000000000000000000000008152600401613a069061495d565b60405180910390fd5b50565b60008060009054906101000a900473ffffffffffffffffffffffffffffffffffffffff169050816000806101000a81548173ffffffffffffffffffffffffffffffffffffffff021916908373ffffffffffffffffffffffffffffffffffffffff1602179055508173ffffffffffffffffffffffffffffffffffffffff168173ffffffffffffffffffffffffffffffffffffffff167f8be0079c531659141344cd1fd0a4f28419497f9722a3daafe3b4186f6b6457e060405160405180910390a35050565b613adf816139cc565b50565b60008115613af357600d9050613af8565b600f90505b919050565b60005b600d80549050811015613d1f576000600d8281548110613b49577f4e487b7100000000000000000000000000000000000000000000000000000000600052603260045260246000fd5b906000526020600020015490506000600c600083815260200190815260200160002090506000805b8280549050811015613cfa5785838281548110613bb7577f4e487b7100000000000000000000000000000000000000000000000000000000600052603260045260246000fd5b90600052602060002001541415613ce75760008590505b60018480549050613bdf9190614d06565b811015613c905783600182613bf49190614c56565b81548110613c2b577f4e487b7100000000000000000000000000000000000000000000000000000000600052603260045260246000fd5b9060005260206000200154848281548110613c6f577f4e487b7100000000000000000000000000000000000000000000000000000000600052603260045260246000fd5b90600052602060002001819055508080613c8890614e6c565b915050613bce565b5082805480613cc8577f4e487b7100000000000000000000000000000000000000000000000000000000600052603160045260246000fd5b6001900381819060005260206000200160009055905560019150613cfa565b8080613cf290614e6c565b915050613b71565b508015613d0957505050613d1f565b5050508080613d1790614e6c565b915050613b00565b5050565b60005b600f80549050811015613f45576000600f8281548110613d6f577f4e487b7100000000000000000000000000000000000000000000000000000000600052603260045260246000fd5b906000526020600020015490506000600e600083815260200190815260200160002090506000805b8280549050811015613f205785838281548110613ddd577f4e487b7100000000000000000000000000000000000000000000000000000000600052603260045260246000fd5b90600052602060002001541415613f0d5760008590505b60018480549050613e059190614d06565b811015613eb65783600182613e1a9190614c56565b81548110613e51577f4e487b7100000000000000000000000000000000000000000000000000000000600052603260045260246000fd5b9060005260206000200154848281548110613e95577f4e487b7100000000000000000000000000000000000000000000000000000000600052603260045260246000fd5b90600052602060002001819055508080613eae90614e6c565b915050613df4565b5082805480613eee577f4e487b7100000000000000000000000000000000000000000000000000000000600052603160045260246000fd5b6001900381819060005260206000200160009055905560019150613f20565b8080613f1890614e6c565b915050613d97565b508015613f2f57505050613f45565b5050508080613f3d90614e6c565b915050613d26565b5050565b828054613f5590614dec565b90600052602060002090601f016020900481019282613f775760008555613fbe565b82601f10613f9057805160ff1916838001178555613fbe565b82800160010185558215613fbe579182015b82811115613fbd578251825591602001919060010190613fa2565b5b509050613fcb91906140af565b5090565b82805482825590600052602060002090810192821561400b579160200282015b8281111561400a578251825591602001919060010190613fef565b5b50905061401891906140af565b5090565b508054600082559060005260206000209081019061403a91906140af565b50565b508054600082556007029060005260206000209081019061405e91906140cc565b50565b6040518060c001604052806000815260200160008152602001600073ffffffffffffffffffffffffffffffffffffffff16815260200160001515815260200160008152602001600081525090565b5b808211156140c85760008160009055506001016140b0565b5090565b5b8082111561419357600080820160006101000a81549073ffffffffffffffffffffffffffffffffffffffff021916905560018201600090556002820160006101000a81549073ffffffffffffffffffffffffffffffffffffffff02191690556003820160006101000a81549073ffffffffffffffffffffffffffffffffffffffff021916905560048201600090556005820160006101000a81549073ffffffffffffffffffffffffffffffffffffffff02191690556006820160009055506007016140cd565b5090565b6000813590506141a6816152d8565b92915050565b6000813590506141bb816152ef565b92915050565b6000815190506141d0816152ef565b92915050565b6000813590506141e581615306565b92915050565b6000815190506141fa81615306565b92915050565b60006020828403121561421257600080fd5b600061422084828501614197565b91505092915050565b60006020828403121561423b57600080fd5b6000614249848285016141ac565b91505092915050565b60006020828403121561426457600080fd5b6000614272848285016141c1565b91505092915050565b6000806040838503121561428e57600080fd5b600061429c858286016141ac565b92505060206142ad858286016141d6565b9150509250929050565b6000602082840312156142c957600080fd5b60006142d7848285016141d6565b91505092915050565b6000602082840312156142f257600080fd5b6000614300848285016141eb565b91505092915050565b6000806040838503121561431c57600080fd5b600061432a858286016141d6565b925050602061433b858286016141ac565b9150509250929050565b6000806000806080858703121561435b57600080fd5b6000614369878288016141d6565b945050602061437a878288016141ac565b935050604061438b878288016141d6565b925050606061439c878288016141d6565b91505092959194509250565b60006143b483836147f6565b60208301905092915050565b6143c981614d71565b82525050565b6143d881614d71565b82525050565b60006143e982614c11565b6143f38185614c34565b93506143fe83614c01565b8060005b8381101561442f57815161441688826143a8565b975061442183614c27565b925050600181019050614402565b5085935050505092915050565b61444581614d83565b82525050565b61445481614d83565b82525050565b600061446582614c1c565b61446f8185614c45565b935061447f818560208601614db9565b61448881614f13565b840191505092915050565b60006144a0601283614c45565b91506144ab82614f3e565b602082019050919050565b60006144c3602083614c45565b91506144ce82614f67565b602082019050919050565b60006144e6603783614c45565b91506144f182614f90565b604082019050919050565b6000614509602383614c45565b915061451482614fdf565b604082019050919050565b600061452c601183614c45565b91506145378261502e565b602082019050919050565b600061454f602683614c45565b915061455a82615057565b604082019050919050565b6000614572603883614c45565b915061457d826150a6565b604082019050919050565b6000614595601183614c45565b91506145a0826150f5565b602082019050919050565b60006145b8601683614c45565b91506145c38261511e565b602082019050919050565b60006145db602683614c45565b91506145e682615147565b604082019050919050565b60006145fe601183614c45565b915061460982615196565b602082019050919050565b6000614621602083614c45565b915061462c826151bf565b602082019050919050565b6000614644601a83614c45565b915061464f826151e8565b602082019050919050565b6000614667602383614c45565b915061467282615211565b604082019050919050565b600061468a603683614c45565b915061469582615260565b604082019050919050565b60006146ad601983614c45565b91506146b8826152af565b602082019050919050565b60c0820160008201516146d960008501826147f6565b5060208201516146ec60208501826147f6565b5060408201516146ff60408501826143c0565b506060820151614712606085018261443c565b50608082015161472560808501826147f6565b5060a082015161473860a08501826147f6565b50505050565b60c08201600080830154905061475381614e38565b61476060008601826147f6565b506001830154905061477181614e38565b61477e60208601826147f6565b506002830154905061478f81614e1e565b61479c60408601826143c0565b506147a681614e52565b6147b3606086018261443c565b50600383015490506147c481614e38565b6147d160808601826147f6565b50600483015490506147e281614e38565b6147ef60a08601826147f6565b5050505050565b6147ff81614daf565b82525050565b61480e81614daf565b82525050565b600060208201905061482960008301846143cf565b92915050565b600060408201905061484460008301856143cf565b61485160208301846143cf565b9392505050565b600060608201905061486d60008301866143cf565b61487a60208301856143cf565b6148876040830184614805565b949350505050565b600060e0820190506148a4600083018a6143cf565b6148b16020830189614805565b6148be60408301886143cf565b6148cb60608301876143cf565b6148d86080830186614805565b6148e560a08301856143cf565b6148f260c0830184614805565b98975050505050505050565b6000602082019050818103600083015261491881846143de565b905092915050565b6000602082019050614935600083018461444b565b92915050565b60006020820190508181036000830152614955818461445a565b905092915050565b6000602082019050818103600083015261497681614493565b9050919050565b60006020820190508181036000830152614996816144b6565b9050919050565b600060208201905081810360008301526149b6816144d9565b9050919050565b600060208201905081810360008301526149d6816144fc565b9050919050565b600060208201905081810360008301526149f68161451f565b9050919050565b60006020820190508181036000830152614a1681614542565b9050919050565b60006020820190508181036000830152614a3681614565565b9050919050565b60006020820190508181036000830152614a5681614588565b9050919050565b60006020820190508181036000830152614a76816145ab565b9050919050565b60006020820190508181036000830152614a96816145ce565b9050919050565b60006020820190508181036000830152614ab6816145f1565b9050919050565b60006020820190508181036000830152614ad681614614565b9050919050565b60006020820190508181036000830152614af681614637565b9050919050565b60006020820190508181036000830152614b168161465a565b9050919050565b60006020820190508181036000830152614b368161467d565b9050919050565b60006020820190508181036000830152614b56816146a0565b9050919050565b600060c082019050614b7260008301846146c3565b92915050565b600060c082019050614b8d600083018461473e565b92915050565b6000602082019050614ba86000830184614805565b92915050565b600060a082019050614bc36000830188614805565b614bd060208301876143cf565b614bdd604083018661444b565b614bea6060830185614805565b614bf76080830184614805565b9695505050505050565b6000819050602082019050919050565b600081519050919050565b600081519050919050565b6000602082019050919050565b600082825260208201905092915050565b600082825260208201905092915050565b6000614c6182614daf565b9150614c6c83614daf565b9250827fffffffffffffffffffffffffffffffffffffffffffffffffffffffffffffffff03821115614ca157614ca0614eb5565b5b828201905092915050565b6000614cb782614daf565b9150614cc283614daf565b9250817fffffffffffffffffffffffffffffffffffffffffffffffffffffffffffffffff0483118215151615614cfb57614cfa614eb5565b5b828202905092915050565b6000614d1182614daf565b9150614d1c83614daf565b925082821015614d2f57614d2e614eb5565b5b828203905092915050565b600073ffffffffffffffffffffffffffffffffffffffff82169050919050565b600060ff82169050919050565b6000819050919050565b6000614d7c82614d8f565b9050919050565b60008115159050919050565b600073ffffffffffffffffffffffffffffffffffffffff82169050919050565b6000819050919050565b60005b83811015614dd7578082015181840152602081019050614dbc565b83811115614de6576000848401525b50505050565b60006002820490506001821680614e0457607f821691505b60208210811415614e1857614e17614ee4565b5b50919050565b6000614e31614e2c83614f24565b614d3a565b9050919050565b6000614e4b614e4683614f24565b614d67565b9050919050565b6000614e65614e6083614f31565b614d5a565b9050919050565b6000614e7782614daf565b91507fffffffffffffffffffffffffffffffffffffffffffffffffffffffffffffffff821415614eaa57614ea9614eb5565b5b600182019050919050565b7f4e487b7100000000000000000000000000000000000000000000000000000000600052601160045260246000fd5b7f4e487b7100000000000000000000000000000000000000000000000000000000600052602260045260246000fd5b6000601f19601f8301169050919050565b60008160001c9050919050565b60008160a01c9050919050565b7f416d6f756e74206d757374206265203e20300000000000000000000000000000600082015250565b7f45787465726e616c206f7264657220696420616c726561647920657869737473600082015250565b7f7b4275797d204e6f7420656e6f7567682066756e647320666f7220736574746c60008201527f656d656e7420666f72206d6174636865645f6f776e6572000000000000000000602082015250565b7f43726f737365642073656c6c207072696365203c20626573742062757920707260008201527f6963650000000000000000000000000000000000000000000000000000000000602082015250565b7f5072696365206d757374206265203e2030000000000000000000000000000000600082015250565b7f4f776e61626c653a206e6577206f776e657220697320746865207a65726f206160008201527f6464726573730000000000000000000000000000000000000000000000000000602082015250565b7f7b4275797d204e6f7420656e6f7567682066756e647320666f7220736574746c60008201527f656d656e742066726f6d206d6174636865645f6f776e65720000000000000000602082015250565b7f5472616e736665722031206661696c6564000000000000000000000000000000600082015250565b7f43616e6e6f74206d61746368206f776e206f7264657200000000000000000000600082015250565b7f7b4275797d204e6f7420656e6f7567682066756e647320666f72206f7264657260008201527f5f6f776e65720000000000000000000000000000000000000000000000000000602082015250565b7f5472616e736665722032206661696c6564000000000000000000000000000000600082015250565b7f4f776e61626c653a2063616c6c6572206973206e6f7420746865206f776e6572600082015250565b7f5061727469636970616e74206973206e6f7420616c6c6f776564000000000000600082015250565b7f43726f7373656420627579207072696365203e20626573742073656c6c20707260008201527f6963650000000000000000000000000000000000000000000000000000000000602082015250565b7f7b4275797d204e6f7420656e6f7567682066756e647320666f7220736574746c60008201527f656d656e742066726f6d206f726465725f6f776e657200000000000000000000602082015250565b7f54726164696e6720686173206265656e2064697361626c656400000000000000600082015250565b6152e181614d71565b81146152ec57600080fd5b50565b6152f881614d83565b811461530357600080fd5b50565b61530f81614daf565b811461531a57600080fd5b5056fe73746f72696e67206c696d6974206f7264657220286e6f206f70706f73697465206f72646572296d617463686564207363656e6172696f2e20656d697474696e67204f72646572557064617465644576656e746d617463686564207363656e6172696f2e2073697a65206c6566742e20656d697474696e67204f72646572506c616365644576656e746d617463686564207363656e6172696f2e2073697a65206c6566742e20656d697474696e67204f72646572557064617465644576656e7473746f726564206c696d6974206f726465722e20656d697474696e67206576656e742020286e6f206f70706f73697465206f7264657229a2646970667358221220ec09c5517c6ab8900ef19db57beaa67f34c15c99cce739302846728a10dc2bc664736f6c63430008040033",
  "linkReferences": {},
  "deployedLinkReferences": {}
}