{
  "_format": "hh-sol-artifact-1",
  "contractName": "DLOBEX",
  "sourceName": "contracts/DLOBEX.sol",
  "abi": [
    {
      "inputs": [
        {
          "internalType": "address",
          "name": "token_base_address",
          "type": "address"
        },
        {
          "internalType": "address",
          "name": "token_term_address",
          "type": "address"
        }
      ],
      "stateMutability": "nonpayable",
      "type": "constructor"
    },
    {
      "anonymous": false,
      "inputs": [
        {
          "components": [
            {
              "internalType": "uint256",
              "name": "id_int",
              "type": "uint256"
            },
            {
              "internalType": "uint256",
              "name": "id_ext",
              "type": "uint256"
            },
            {
              "internalType": "address",
              "name": "owner",
              "type": "address"
            },
            {
              "internalType": "bool",
              "name": "is_buy",
              "type": "bool"
            },
            {
              "internalType": "uint256",
              "name": "size",
              "type": "uint256"
            },
            {
              "internalType": "uint256",
              "name": "price",
              "type": "uint256"
            }
          ],
          "indexed": false,
          "internalType": "struct DLOBEX.Order",
          "name": "order",
          "type": "tuple"
        }
      ],
      "name": "OrderPlacedEvent",
      "type": "event"
    },
    {
      "anonymous": false,
      "inputs": [
        {
          "components": [
            {
              "internalType": "uint256",
              "name": "id_int",
              "type": "uint256"
            },
            {
              "internalType": "uint256",
              "name": "id_ext",
              "type": "uint256"
            },
            {
              "internalType": "address",
              "name": "owner",
              "type": "address"
            },
            {
              "internalType": "bool",
              "name": "is_buy",
              "type": "bool"
            },
            {
              "internalType": "uint256",
              "name": "size",
              "type": "uint256"
            },
            {
              "internalType": "uint256",
              "name": "price",
              "type": "uint256"
            }
          ],
          "indexed": false,
          "internalType": "struct DLOBEX.Order",
          "name": "order",
          "type": "tuple"
        }
      ],
      "name": "OrderRemovedEvent",
      "type": "event"
    },
    {
      "anonymous": false,
      "inputs": [
        {
          "components": [
            {
              "internalType": "uint256",
              "name": "id_int",
              "type": "uint256"
            },
            {
              "internalType": "uint256",
              "name": "id_ext",
              "type": "uint256"
            },
            {
              "internalType": "address",
              "name": "owner",
              "type": "address"
            },
            {
              "internalType": "bool",
              "name": "is_buy",
              "type": "bool"
            },
            {
              "internalType": "uint256",
              "name": "size",
              "type": "uint256"
            },
            {
              "internalType": "uint256",
              "name": "price",
              "type": "uint256"
            }
          ],
          "indexed": false,
          "internalType": "struct DLOBEX.Order",
          "name": "order",
          "type": "tuple"
        }
      ],
      "name": "OrderUpdatedEvent",
      "type": "event"
    },
    {
      "anonymous": false,
      "inputs": [
        {
          "indexed": true,
          "internalType": "address",
          "name": "previousOwner",
          "type": "address"
        },
        {
          "indexed": true,
          "internalType": "address",
          "name": "newOwner",
          "type": "address"
        }
      ],
      "name": "OwnershipTransferred",
      "type": "event"
    },
    {
      "anonymous": false,
      "inputs": [
        {
          "indexed": false,
          "internalType": "address",
          "name": "adr",
          "type": "address"
        }
      ],
      "name": "ParticipantAddedEvent",
      "type": "event"
    },
    {
      "anonymous": false,
      "inputs": [
        {
          "indexed": false,
          "internalType": "address",
          "name": "adr",
          "type": "address"
        }
      ],
      "name": "ParticipantRemovedEvent",
      "type": "event"
    },
    {
      "anonymous": false,
      "inputs": [
        {
          "indexed": false,
          "internalType": "address",
          "name": "adr1",
          "type": "address"
        },
        {
          "indexed": false,
          "internalType": "uint256",
          "name": "token1_amount",
          "type": "uint256"
        },
        {
          "indexed": false,
          "internalType": "address",
          "name": "token1",
          "type": "address"
        },
        {
          "indexed": false,
          "internalType": "address",
          "name": "adr2",
          "type": "address"
        },
        {
          "indexed": false,
          "internalType": "uint256",
          "name": "token2_amount",
          "type": "uint256"
        },
        {
          "indexed": false,
          "internalType": "address",
          "name": "token2",
          "type": "address"
        },
        {
          "indexed": false,
          "internalType": "uint256",
          "name": "price",
          "type": "uint256"
        }
      ],
      "name": "SettlementInstruction",
      "type": "event"
    },
    {
      "anonymous": false,
      "inputs": [],
      "name": "TradingStartedEvent",
      "type": "event"
    },
    {
      "anonymous": false,
      "inputs": [],
      "name": "TradingStoppedEvent",
      "type": "event"
    },
    {
      "inputs": [
        {
          "internalType": "address",
          "name": "participant",
          "type": "address"
        }
      ],
      "name": "add_participant",
      "outputs": [],
      "stateMutability": "nonpayable",
      "type": "function"
    },
    {
      "inputs": [
        {
          "internalType": "uint256",
          "name": "price",
          "type": "uint256"
        },
        {
          "internalType": "bool",
          "name": "is_buy",
          "type": "bool"
        }
      ],
      "name": "add_price",
      "outputs": [],
      "stateMutability": "nonpayable",
      "type": "function"
    },
    {
      "inputs": [],
      "name": "base_token",
      "outputs": [
        {
          "internalType": "address",
          "name": "",
          "type": "address"
        }
      ],
      "stateMutability": "view",
      "type": "function"
    },
    {
      "inputs": [],
      "name": "best_buy_price",
      "outputs": [
        {
          "internalType": "uint256",
          "name": "",
          "type": "uint256"
        }
      ],
      "stateMutability": "view",
      "type": "function"
    },
    {
      "inputs": [
        {
          "internalType": "bool",
          "name": "is_buy",
          "type": "bool"
        }
      ],
      "name": "best_price",
      "outputs": [
        {
          "internalType": "uint256",
          "name": "",
          "type": "uint256"
        }
      ],
      "stateMutability": "view",
      "type": "function"
    },
    {
      "inputs": [],
      "name": "best_sell_price",
      "outputs": [
        {
          "internalType": "uint256",
          "name": "",
          "type": "uint256"
        }
      ],
      "stateMutability": "view",
      "type": "function"
    },
    {
      "inputs": [
        {
          "internalType": "uint256",
          "name": "price",
          "type": "uint256"
        }
      ],
      "name": "buy_order_ids",
      "outputs": [
        {
          "internalType": "uint256[]",
          "name": "",
          "type": "uint256[]"
        }
      ],
      "stateMutability": "view",
      "type": "function"
    },
    {
      "inputs": [],
      "name": "buy_prices",
      "outputs": [
        {
          "internalType": "uint256[]",
          "name": "",
          "type": "uint256[]"
        }
      ],
      "stateMutability": "view",
      "type": "function"
    },
    {
      "inputs": [],
      "name": "debug",
      "outputs": [
        {
          "internalType": "string",
          "name": "",
          "type": "string"
        }
      ],
      "stateMutability": "view",
      "type": "function"
    },
    {
      "inputs": [],
      "name": "get_base_fee",
      "outputs": [
        {
          "internalType": "uint256",
          "name": "",
          "type": "uint256"
        }
      ],
      "stateMutability": "view",
      "type": "function"
    },
    {
      "inputs": [],
      "name": "get_number_of_settlements",
      "outputs": [
        {
          "internalType": "uint256",
          "name": "",
          "type": "uint256"
        }
      ],
      "stateMutability": "view",
      "type": "function"
    },
    {
      "inputs": [
        {
          "internalType": "uint256",
          "name": "id",
          "type": "uint256"
        }
      ],
      "name": "get_order",
      "outputs": [
        {
          "internalType": "uint256",
          "name": "",
          "type": "uint256"
        },
        {
          "internalType": "address",
          "name": "",
          "type": "address"
        },
        {
          "internalType": "bool",
          "name": "",
          "type": "bool"
        },
        {
          "internalType": "uint256",
          "name": "",
          "type": "uint256"
        },
        {
          "internalType": "uint256",
          "name": "",
          "type": "uint256"
        }
      ],
      "stateMutability": "view",
      "type": "function"
    },
    {
      "inputs": [
        {
          "internalType": "uint256",
          "name": "index",
          "type": "uint256"
        }
      ],
      "name": "get_settlement",
      "outputs": [
        {
          "internalType": "address",
          "name": "adr1",
          "type": "address"
        },
        {
          "internalType": "uint256",
          "name": "token1_amount",
          "type": "uint256"
        },
        {
          "internalType": "address",
          "name": "token1",
          "type": "address"
        },
        {
          "internalType": "address",
          "name": "adr2",
          "type": "address"
        },
        {
          "internalType": "uint256",
          "name": "token2_amount",
          "type": "uint256"
        },
        {
          "internalType": "address",
          "name": "token2",
          "type": "address"
        },
        {
          "internalType": "uint256",
          "name": "price",
          "type": "uint256"
        }
      ],
      "stateMutability": "view",
      "type": "function"
    },
    {
      "inputs": [],
      "name": "get_term_fee",
      "outputs": [
        {
          "internalType": "uint256",
          "name": "",
          "type": "uint256"
        }
      ],
      "stateMutability": "view",
      "type": "function"
    },
    {
      "inputs": [
        {
          "internalType": "address",
          "name": "participant",
          "type": "address"
        }
      ],
      "name": "is_participant_allowed",
      "outputs": [
        {
          "internalType": "bool",
          "name": "",
          "type": "bool"
        }
      ],
      "stateMutability": "view",
      "type": "function"
    },
    {
      "inputs": [],
      "name": "is_trading_allowed",
      "outputs": [
        {
          "internalType": "bool",
          "name": "",
          "type": "bool"
        }
      ],
      "stateMutability": "view",
      "type": "function"
    },
    {
      "inputs": [],
      "name": "last_traded_price",
      "outputs": [
        {
          "internalType": "uint256",
          "name": "",
          "type": "uint256"
        }
      ],
      "stateMutability": "view",
      "type": "function"
    },
    {
      "inputs": [],
      "name": "owner",
      "outputs": [
        {
          "internalType": "address",
          "name": "",
          "type": "address"
        }
      ],
      "stateMutability": "view",
      "type": "function"
    },
    {
      "inputs": [
        {
          "internalType": "uint256",
          "name": "ext_order_id",
          "type": "uint256"
        },
        {
          "internalType": "bool",
          "name": "is_buy",
          "type": "bool"
        },
        {
          "internalType": "uint256",
          "name": "amount",
          "type": "uint256"
        },
        {
          "internalType": "uint256",
          "name": "price",
          "type": "uint256"
        }
      ],
      "name": "place_limit_order",
      "outputs": [],
      "stateMutability": "nonpayable",
      "type": "function"
    },
    {
      "inputs": [
        {
          "internalType": "bool",
          "name": "is_buy",
          "type": "bool"
        },
        {
          "internalType": "uint256",
          "name": "amount",
          "type": "uint256"
        }
      ],
      "name": "place_market_order",
      "outputs": [],
      "stateMutability": "nonpayable",
      "type": "function"
    },
    {
      "inputs": [],
      "name": "print_clob",
      "outputs": [],
      "stateMutability": "view",
      "type": "function"
    },
    {
      "inputs": [
        {
          "internalType": "address",
          "name": "participant",
          "type": "address"
        }
      ],
      "name": "remove_participant",
      "outputs": [],
      "stateMutability": "nonpayable",
      "type": "function"
    },
    {
      "inputs": [],
      "name": "renounceOwnership",
      "outputs": [],
      "stateMutability": "nonpayable",
      "type": "function"
    },
    {
      "inputs": [],
      "name": "reset",
      "outputs": [],
      "stateMutability": "nonpayable",
      "type": "function"
    },
    {
      "inputs": [
        {
          "internalType": "uint256",
          "name": "price",
          "type": "uint256"
        }
      ],
      "name": "sell_order_ids",
      "outputs": [
        {
          "internalType": "uint256[]",
          "name": "",
          "type": "uint256[]"
        }
      ],
      "stateMutability": "view",
      "type": "function"
    },
    {
      "inputs": [],
      "name": "sell_prices",
      "outputs": [
        {
          "internalType": "uint256[]",
          "name": "",
          "type": "uint256[]"
        }
      ],
      "stateMutability": "view",
      "type": "function"
    },
    {
      "inputs": [
        {
          "internalType": "uint256",
          "name": "fee",
          "type": "uint256"
        }
      ],
      "name": "set_base_fee",
      "outputs": [],
      "stateMutability": "nonpayable",
      "type": "function"
    },
    {
      "inputs": [
        {
          "internalType": "uint256",
          "name": "fee",
          "type": "uint256"
        }
      ],
      "name": "set_term_fee",
      "outputs": [],
      "stateMutability": "nonpayable",
      "type": "function"
    },
    {
      "inputs": [],
      "name": "start_trading",
      "outputs": [],
      "stateMutability": "nonpayable",
      "type": "function"
    },
    {
      "inputs": [],
      "name": "stop_trading",
      "outputs": [],
      "stateMutability": "nonpayable",
      "type": "function"
    },
    {
      "inputs": [],
      "name": "term_token",
      "outputs": [
        {
          "internalType": "address",
          "name": "",
          "type": "address"
        }
      ],
      "stateMutability": "view",
      "type": "function"
    },
    {
      "inputs": [
        {
          "internalType": "address",
          "name": "newOwner",
          "type": "address"
        }
      ],
      "name": "transferOwnership",
      "outputs": [],
      "stateMutability": "nonpayable",
      "type": "function"
    },
    {
      "inputs": [
        {
          "internalType": "uint256",
          "name": "ext_order_id",
          "type": "uint256"
        },
        {
          "internalType": "bool",
          "name": "is_buy",
          "type": "bool"
        },
        {
          "internalType": "uint256",
          "name": "amount",
          "type": "uint256"
        },
        {
          "internalType": "uint256",
          "name": "price",
          "type": "uint256"
        }
      ],
      "name": "validate_limit_order",
      "outputs": [],
      "stateMutability": "view",
      "type": "function"
    }
  ],
  "bytecode": "0x60806040526000600560006101000a81548160ff02191690831515021790555060006006556000600755600060085560016009553480156200004057600080fd5b5060405162005a4038038062005a40833981810160405281019062000066919062000234565b620000866200007a6200015160201b60201c565b6200015960201b60201c565b33600160006101000a81548173ffffffffffffffffffffffffffffffffffffffff021916908373ffffffffffffffffffffffffffffffffffffffff16021790555081600260006101000a81548173ffffffffffffffffffffffffffffffffffffffff021916908373ffffffffffffffffffffffffffffffffffffffff16021790555080600360006101000a81548173ffffffffffffffffffffffffffffffffffffffff021916908373ffffffffffffffffffffffffffffffffffffffff1602179055505050620002c3565b600033905090565b60008060009054906101000a900473ffffffffffffffffffffffffffffffffffffffff169050816000806101000a81548173ffffffffffffffffffffffffffffffffffffffff021916908373ffffffffffffffffffffffffffffffffffffffff1602179055508173ffffffffffffffffffffffffffffffffffffffff168173ffffffffffffffffffffffffffffffffffffffff167f8be0079c531659141344cd1fd0a4f28419497f9722a3daafe3b4186f6b6457e060405160405180910390a35050565b6000815190506200022e81620002a9565b92915050565b600080604083850312156200024857600080fd5b600062000258858286016200021d565b92505060206200026b858286016200021d565b9150509250929050565b6000620002828262000289565b9050919050565b600073ffffffffffffffffffffffffffffffffffffffff82169050919050565b620002b48162000275565b8114620002c057600080fd5b50565b61576d80620002d36000396000f3fe608060405234801561001057600080fd5b50600436106101fb5760003560e01c8063916a250c1161011a578063c7234600116100ad578063e07daf091161007c578063e07daf091461053a578063e9303c6f14610556578063f0ac025014610574578063f2fde38b146105a4578063f7bb9aac146105c0576101fb565b8063c7234600146104d4578063c763f315146104de578063d130525214610514578063d826f88f14610530576101fb565b8063b4a803ff116100e9578063b4a803ff14610472578063b66ad02b1461047c578063bf94e2e61461049a578063c39650bd146104b8576101fb565b8063916a250c146103da578063979941071461040a5780639e5035ed14610426578063ae2c8b2214610456576101fb565b80635fcb317c1161019257806375ce738e1161016157806375ce738e1461036257806375eb7e88146103805780637658ad461461039e5780638da5cb5b146103bc576101fb565b80635fcb317c146102ea5780636b687e4c1461031e57806370b5966e1461033c578063715018a614610358576101fb565b806349f4d437116101ce57806349f4d4371461026257806352ada1ab14610280578063588ee29b146102b05780635ebf77d8146102ce576101fb565b8063058bb53f146102005780630ec9a2ab1461021e5780631c86765a1461023a5780632efc65d414610258575b600080fd5b6102086105de565b6040516102159190614eb6565b60405180910390f35b61023860048036038101906102339190614668565b6105e8565b005b610242610f3d565b60405161024f9190614eb6565b60405180910390f35b610260610f8a565b005b61026a61104f565b6040516102779190614eb6565b60405180910390f35b61029a60048036038101906102959190614523565b611059565b6040516102a79190614c43565b60405180910390f35b6102b86110af565b6040516102c59190614c5e565b60405180910390f35b6102e860048036038101906102e39190614668565b611141565b005b61030460048036038101906102ff91906145da565b61129a565b604051610315959493929190614ed1565b60405180910390f35b610326611312565b6040516103339190614eb6565b60405180910390f35b610356600480360381019061035191906145da565b611403565b005b610360611489565b005b61036a611511565b6040516103779190614b37565b60405180910390f35b61038861153b565b6040516103959190614eb6565b60405180910390f35b6103a6611545565b6040516103b39190614eb6565b60405180910390f35b6103c4611592565b6040516103d19190614b37565b60405180910390f35b6103f460048036038101906103ef91906145da565b6115bb565b6040516104019190614c21565b60405180910390f35b610424600480360381019061041f919061459e565b611626565b005b610440600480360381019061043b919061454c565b611a8a565b60405161044d9190614eb6565b60405180910390f35b610470600480360381019061046b919061462c565b611b60565b005b61047a611f4d565b005b610484612012565b6040516104919190614c21565b60405180910390f35b6104a261206a565b6040516104af9190614c43565b60405180910390f35b6104d260048036038101906104cd9190614523565b612081565b005b6104dc61218f565b005b6104f860048036038101906104f391906145da565b6123db565b60405161050b9796959493929190614bb2565b60405180910390f35b61052e60048036038101906105299190614523565b6125d3565b005b6105386126e1565b005b610554600480360381019061054f91906145da565b612928565b005b61055e6129ae565b60405161056b9190614b37565b60405180910390f35b61058e600480360381019061058991906145da565b6129d8565b60405161059b9190614c21565b60405180910390f35b6105be60048036038101906105b99190614523565b612a43565b005b6105c8612b3b565b6040516105d59190614c21565b60405180910390f35b6000600754905090565b604051806020016040528060008152506011908051906020019061060d92919061426c565b50600560009054906101000a900460ff1661065d576040517f08c379a000000000000000000000000000000000000000000000000000000000815260040161065490614e60565b60405180910390fd5b600460003373ffffffffffffffffffffffffffffffffffffffff1673ffffffffffffffffffffffffffffffffffffffff16815260200190815260200160002060009054906101000a900460ff166106e9576040517f08c379a00000000000000000000000000000000000000000000000000000000081526004016106e090614e00565b60405180910390fd5b6040518060400160405280601681526020017f76616c69646174696e67206c696d6974206f72646572000000000000000000008152506011908051906020019061073492919061426c565b5061074184848484611141565b6040518060400160405280601581526020017f76616c696461746564206c696d6974206f7264657200000000000000000000008152506011908051906020019061078c92919061426c565b5060006107998415612b93565b90506040518060400160405280601b81526020017f6372656174696e67206d656d6f7279206c696d6974206f726465720000000000815250601190805190602001906107e692919061426c565b5060006107f63387878787612bae565b90506040518060400160405280601381526020017f63726561746564206c696d6974206f72646572000000000000000000000000008152506011908051906020019061084392919061426c565b50600082600085815260200190815260200160002080549050148061087157508261086e8615611a8a565b14155b156109675760405180606001604052806027815260200161564160279139601190805190602001906108a492919061426c565b506108ae81612c23565b60405180606001604052806037815260200161570160379139601190805190602001906108dc92919061426c565b507f386fb813d2c4c2620a12432535c84a9c5ad55d10c9fca0c7c391f7ee3dc242308160405161090c9190614e80565b60405180910390a16040518060400160405280601881526020017f656d6974746564204f72646572506c616365644576656e7400000000000000008152506011908051906020019061095f92919061426c565b505050610f37565b6040518060400160405280601081526020017f6d617463686564207363656e6172696f00000000000000000000000000000000815250601190805190602001906109b292919061426c565b5082600881905550600082600085815260200190815260200160002090506000818054905067ffffffffffffffff811115610a16577f4e487b7100000000000000000000000000000000000000000000000000000000600052604160045260246000fd5b604051908082528060200260200182016040528015610a445781602001602082028036833780820191505090505b50905060005b8280549050811015610af257828181548110610a8f577f4e487b7100000000000000000000000000000000000000000000000000000000600052603260045260246000fd5b9060005260206000200154828281518110610ad3577f4e487b7100000000000000000000000000000000000000000000000000000000600052603260045260246000fd5b6020026020010181815250508080610aea9061518f565b915050610a4a565b50600086905060005b825181108015610b0b5750600082115b15610e9d576000600a6000858481518110610b4f577f4e487b7100000000000000000000000000000000000000000000000000000000600052603260045260246000fd5b6020026020010151815260200190815260200160002090508060020160009054906101000a900473ffffffffffffffffffffffffffffffffffffffff1673ffffffffffffffffffffffffffffffffffffffff163373ffffffffffffffffffffffffffffffffffffffff161415610bfa576040517f08c379a0000000000000000000000000000000000000000000000000000000008152600401610bf190614d80565b60405180910390fd5b80600301548310610ca157610c2481600001548260020160149054906101000a900460ff16612d55565b6040518060600160405280602c8152602001615668602c913960119080519060200190610c5292919061426c565b507f6b95666e21f5702b320e6f0e0aa93c1f07826da7a22202af7e5c1923696314f881604051610c829190614e9b565b60405180910390a1806003015483610c9a9190615029565b9250610e50565b60006040518060c0016040528083600001548152602001836001015481526020018360020160009054906101000a900473ffffffffffffffffffffffffffffffffffffffff1673ffffffffffffffffffffffffffffffffffffffff1681526020018360020160149054906101000a900460ff1615158152602001858460030154610d2b9190615029565b8152602001836004015481525090506000935080600a600084600001548152602001908152602001600020600082015181600001556020820151816001015560408201518160020160006101000a81548173ffffffffffffffffffffffffffffffffffffffff021916908373ffffffffffffffffffffffffffffffffffffffff16021790555060608201518160020160146101000a81548160ff0219169083151502179055506080820151816003015560a082015181600401559050506040518060600160405280603781526020016156ca6037913960119080519060200190610e1692919061426c565b507f6b95666e21f5702b320e6f0e0aa93c1f07826da7a22202af7e5c1923696314f881604051610e469190614e80565b60405180910390a1505b610e898160020160009054906101000a900473ffffffffffffffffffffffffffffffffffffffff1687604001518c84600301548c612d77565b508080610e959061518f565b915050610afb565b506000811115610f29576000610eb6338b8b858b612bae565b9050610ec181612c23565b6040518060600160405280603681526020016156946036913960119080519060200190610eef92919061426c565b507f386fb813d2c4c2620a12432535c84a9c5ad55d10c9fca0c7c391f7ee3dc2423081604051610f1f9190614e80565b60405180910390a1505b610f31613aa3565b50505050505b50505050565b6000600f600081548110610f7a577f4e487b7100000000000000000000000000000000000000000000000000000000600052603260045260246000fd5b9060005260206000200154905090565b610f92613ce7565b73ffffffffffffffffffffffffffffffffffffffff16610fb0611592565b73ffffffffffffffffffffffffffffffffffffffff1614611006576040517f08c379a0000000000000000000000000000000000000000000000000000000008152600401610ffd90614de0565b60405180910390fd5b6000600560006101000a81548160ff0219169083151502179055507fa2e85f0a9f88677f3b0cbb59e20653d40901cbe82066aff22044b134e3a5a3ae60405160405180910390a1565b6000600654905090565b6000600460008373ffffffffffffffffffffffffffffffffffffffff1673ffffffffffffffffffffffffffffffffffffffff16815260200190815260200160002060009054906101000a900460ff169050919050565b6060601180546110be9061510f565b80601f01602080910402602001604051908101604052809291908181526020018280546110ea9061510f565b80156111375780601f1061110c57610100808354040283529160200191611137565b820191906000526020600020905b81548152906001019060200180831161111a57829003601f168201915b5050505050905090565b61114a82613cef565b6000811161118d576040517f08c379a000000000000000000000000000000000000000000000000000000000815260040161118490614d00565b60405180910390fd5b6000600b600086815260200190815260200160002054146111e3576040517f08c379a00000000000000000000000000000000000000000000000000000000081526004016111da90614ca0565b60405180910390fd5b60006111ef8415611a8a565b905060008114156112005750611294565b831561124e5780821115611249576040517f08c379a000000000000000000000000000000000000000000000000000000000815260040161124090614e20565b60405180910390fd5b611292565b80821015611291576040517f08c379a000000000000000000000000000000000000000000000000000000000815260040161128890614ce0565b60405180910390fd5b5b505b50505050565b600080600080600080600a6000888152602001908152602001600020905080600101548160020160009054906101000a900473ffffffffffffffffffffffffffffffffffffffff168260020160149054906101000a900460ff1683600401548460030154955095509550955095505091939590929450565b6000600460003373ffffffffffffffffffffffffffffffffffffffff1673ffffffffffffffffffffffffffffffffffffffff16815260200190815260200160002060009054906101000a900460ff16806113b95750600160009054906101000a900473ffffffffffffffffffffffffffffffffffffffff1673ffffffffffffffffffffffffffffffffffffffff163373ffffffffffffffffffffffffffffffffffffffff16145b6113f8576040517f08c379a00000000000000000000000000000000000000000000000000000000081526004016113ef90614e00565b60405180910390fd5b601080549050905090565b61140b613ce7565b73ffffffffffffffffffffffffffffffffffffffff16611429611592565b73ffffffffffffffffffffffffffffffffffffffff161461147f576040517f08c379a000000000000000000000000000000000000000000000000000000000815260040161147690614de0565b60405180910390fd5b8060068190555050565b611491613ce7565b73ffffffffffffffffffffffffffffffffffffffff166114af611592565b73ffffffffffffffffffffffffffffffffffffffff1614611505576040517f08c379a00000000000000000000000000000000000000000000000000000000081526004016114fc90614de0565b60405180910390fd5b61150f6000613d35565b565b6000600260009054906101000a900473ffffffffffffffffffffffffffffffffffffffff16905090565b6000600854905090565b6000600d600081548110611582577f4e487b7100000000000000000000000000000000000000000000000000000000600052603260045260246000fd5b9060005260206000200154905090565b60008060009054906101000a900473ffffffffffffffffffffffffffffffffffffffff16905090565b6060600c600083815260200190815260200160002080548060200260200160405190810160405280929190818152602001828054801561161a57602002820191906000526020600020905b815481526020019060010190808311611606575b50505050509050919050565b604051806020016040528060008152506011908051906020019061164b92919061426c565b50600560009054906101000a900460ff1661169b576040517f08c379a000000000000000000000000000000000000000000000000000000000815260040161169290614e60565b60405180910390fd5b600460003373ffffffffffffffffffffffffffffffffffffffff1673ffffffffffffffffffffffffffffffffffffffff16815260200190815260200160002060009054906101000a900460ff16611727576040517f08c379a000000000000000000000000000000000000000000000000000000000815260040161171e90614e00565b60405180910390fd5b61173081613df9565b600061173c8315613e05565b9050600061174a8415612b93565b905060008390506000805b8480549050811015611a8157600084600087848154811061179f577f4e487b7100000000000000000000000000000000000000000000000000000000600052603260045260246000fd5b90600052602060002001548152602001908152602001600020905060005b8180549050811015611a60576000600a6000848481548110611808577f4e487b7100000000000000000000000000000000000000000000000000000000600052603260045260246000fd5b906000526020600020015481526020019081526020016000209050806003015486116119e1576118638160020160009054906101000a900473ffffffffffffffffffffffffffffffffffffffff16338c898560040154612d77565b80600301548614156118935761188e81600001548260020160149054906101000a900460ff16612d55565b6119d8565b60006040518060c0016040528083600001548152602001836001015481526020018360020160009054906101000a900473ffffffffffffffffffffffffffffffffffffffff1673ffffffffffffffffffffffffffffffffffffffff1681526020018360020160149054906101000a900460ff161515815260200188846003015461191d9190615029565b81526020018360040154815250905080600a600083600001518152602001908152602001600020600082015181600001556020820151816001015560408201518160020160006101000a81548173ffffffffffffffffffffffffffffffffffffffff021916908373ffffffffffffffffffffffffffffffffffffffff16021790555060608201518160020160146101000a81548160ff0219169083151502179055506080820151816003015560a08201518160040155905050505b60019450611a4c565b8060030154866119f19190615029565b9550611a2c8160020160009054906101000a900473ffffffffffffffffffffffffffffffffffffffff16338c84600301548560040154612d77565b611a4b81600001548260020160149054906101000a900460ff16612d55565b5b508080611a589061518f565b9150506117bd565b508215611a6d5750611a81565b508080611a799061518f565b915050611755565b50505050505050565b60008060009050828015611aa357506000600d80549050115b15611af557600d600081548110611ae3577f4e487b7100000000000000000000000000000000000000000000000000000000600052603260045260246000fd5b90600052602060002001549050611b57565b82158015611b0857506000600f80549050115b15611b5657600f600081548110611b48577f4e487b7100000000000000000000000000000000000000000000000000000000600052603260045260246000fd5b906000526020600020015490505b5b80915050919050565b6000611b6b82613e05565b905060008060005b8380549050811015611c9f57838181548110611bb8577f4e487b7100000000000000000000000000000000000000000000000000000000600052603260045260246000fd5b9060005260206000200154861415611bd35750505050611f49565b84611c3457838181548110611c11577f4e487b7100000000000000000000000000000000000000000000000000000000600052603260045260246000fd5b9060005260206000200154861015611c2f5780925060019150611c9f565b611c8c565b838181548110611c6d577f4e487b7100000000000000000000000000000000000000000000000000000000600052603260045260246000fd5b9060005260206000200154861115611c8b5780925060019150611c9f565b5b8080611c979061518f565b915050611b73565b5080611cd25782859080600181540180825580915050600190039060005260206000200160009091909190915055611f45565b600060018480549050611ce59190614f79565b67ffffffffffffffff811115611d24577f4e487b7100000000000000000000000000000000000000000000000000000000600052604160045260246000fd5b604051908082528060200260200182016040528015611d525781602001602082028036833780820191505090505b50905060005b83811015611dfc57848181548110611d99577f4e487b7100000000000000000000000000000000000000000000000000000000600052603260045260246000fd5b9060005260206000200154828281518110611ddd577f4e487b7100000000000000000000000000000000000000000000000000000000600052603260045260246000fd5b6020026020010181815250508080611df49061518f565b915050611d58565b5085818481518110611e37577f4e487b7100000000000000000000000000000000000000000000000000000000600052603260045260246000fd5b6020026020010181815250506000600184611e529190614f79565b90505b84805490508111611f085784600182611e6e9190615029565b81548110611ea5577f4e487b7100000000000000000000000000000000000000000000000000000000600052603260045260246000fd5b9060005260206000200154828281518110611ee9577f4e487b7100000000000000000000000000000000000000000000000000000000600052603260045260246000fd5b6020026020010181815250508080611f009061518f565b915050611e55565b508415611f2b5780600d9080519060200190611f259291906142f2565b50611f43565b80600f9080519060200190611f419291906142f2565b505b505b5050505b5050565b611f55613ce7565b73ffffffffffffffffffffffffffffffffffffffff16611f73611592565b73ffffffffffffffffffffffffffffffffffffffff1614611fc9576040517f08c379a0000000000000000000000000000000000000000000000000000000008152600401611fc090614de0565b60405180910390fd5b6001600560006101000a81548160ff0219169083151502179055507f8a20996fd734d150d7efe880c7e6057fe37d4446c4d59e79c181a98e344bc96660405160405180910390a1565b6060600d80548060200260200160405190810160405280929190818152602001828054801561206057602002820191906000526020600020905b81548152602001906001019080831161204c575b5050505050905090565b6000600560009054906101000a900460ff16905090565b612089613ce7565b73ffffffffffffffffffffffffffffffffffffffff166120a7611592565b73ffffffffffffffffffffffffffffffffffffffff16146120fd576040517f08c379a00000000000000000000000000000000000000000000000000000000081526004016120f490614de0565b60405180910390fd5b6001600460008373ffffffffffffffffffffffffffffffffffffffff1673ffffffffffffffffffffffffffffffffffffffff16815260200190815260200160002060006101000a81548160ff0219169083151502179055507fcbfdb4d668880620c7cddca846a22a6ab99471a25a6a522fa18825a523cbbb0f816040516121849190614b37565b60405180910390a150565b60005b600d805490508110156122b3576000600c6000600d84815481106121df577f4e487b7100000000000000000000000000000000000000000000000000000000600052603260045260246000fd5b90600052602060002001548152602001908152602001600020905060008180549050111561229f5760005b818054905081101561229d576000600a6000848481548110612255577f4e487b7100000000000000000000000000000000000000000000000000000000600052603260045260246000fd5b90600052602060002001548152602001908152602001600020905060008160040154118015612288575060008160030154115b505080806122959061518f565b91505061220a565b505b5080806122ab9061518f565b915050612192565b5060005b600f805490508110156123d8576000600e6000600f8481548110612304577f4e487b7100000000000000000000000000000000000000000000000000000000600052603260045260246000fd5b9060005260206000200154815260200190815260200160002090506000818054905011156123c45760005b81805490508110156123c2576000600a600084848154811061237a577f4e487b7100000000000000000000000000000000000000000000000000000000600052603260045260246000fd5b906000526020600020015481526020019081526020016000209050600081600401541180156123ad575060008160030154115b505080806123ba9061518f565b91505061232f565b505b5080806123d09061518f565b9150506122b7565b50565b6000806000806000806000600460003373ffffffffffffffffffffffffffffffffffffffff1673ffffffffffffffffffffffffffffffffffffffff16815260200190815260200160002060009054906101000a900460ff168061248b5750600160009054906101000a900473ffffffffffffffffffffffffffffffffffffffff1673ffffffffffffffffffffffffffffffffffffffff163373ffffffffffffffffffffffffffffffffffffffff16145b6124ca576040517f08c379a00000000000000000000000000000000000000000000000000000000081526004016124c190614e00565b60405180910390fd5b600060108981548110612506577f4e487b7100000000000000000000000000000000000000000000000000000000600052603260045260246000fd5b906000526020600020906007020190508060000160009054906101000a900473ffffffffffffffffffffffffffffffffffffffff1681600101548260020160009054906101000a900473ffffffffffffffffffffffffffffffffffffffff168360030160009054906101000a900473ffffffffffffffffffffffffffffffffffffffff1684600401548560050160009054906101000a900473ffffffffffffffffffffffffffffffffffffffff168660060154975097509750975097509750975050919395979092949650565b6125db613ce7565b73ffffffffffffffffffffffffffffffffffffffff166125f9611592565b73ffffffffffffffffffffffffffffffffffffffff161461264f576040517f08c379a000000000000000000000000000000000000000000000000000000000815260040161264690614de0565b60405180910390fd5b6000600460008373ffffffffffffffffffffffffffffffffffffffff1673ffffffffffffffffffffffffffffffffffffffff16815260200190815260200160002060006101000a81548160ff0219169083151502179055507f8a4e1fd7f96382ae7a40bd1a9e48e99015ee199725d45fffeaa35bcd797c5813816040516126d69190614b37565b60405180910390a150565b6126e9613ce7565b73ffffffffffffffffffffffffffffffffffffffff16612707611592565b73ffffffffffffffffffffffffffffffffffffffff161461275d576040517f08c379a000000000000000000000000000000000000000000000000000000000815260040161275490614de0565b60405180910390fd5b60005b60095481116127ed57600a600082815260200190815260200160002060008082016000905560018201600090556002820160006101000a81549073ffffffffffffffffffffffffffffffffffffffff02191690556002820160146101000a81549060ff021916905560038201600090556004820160009055505080806127e59061518f565b915050612760565b5060005b600d8054905081101561287457600c6000600d838154811061283c577f4e487b7100000000000000000000000000000000000000000000000000000000600052603260045260246000fd5b906000526020600020015481526020019081526020016000206000612861919061433f565b808061286c9061518f565b9150506127f1565b50600d6000612883919061433f565b60005b600f8054905081101561290957600e6000600f83815481106128d1577f4e487b7100000000000000000000000000000000000000000000000000000000600052603260045260246000fd5b9060005260206000200154815260200190815260200160002060006128f6919061433f565b80806129019061518f565b915050612886565b50600f6000612918919061433f565b601060006129269190614360565b565b612930613ce7565b73ffffffffffffffffffffffffffffffffffffffff1661294e611592565b73ffffffffffffffffffffffffffffffffffffffff16146129a4576040517f08c379a000000000000000000000000000000000000000000000000000000000815260040161299b90614de0565b60405180910390fd5b8060078190555050565b6000600360009054906101000a900473ffffffffffffffffffffffffffffffffffffffff16905090565b6060600e6000838152602001908152602001600020805480602002602001604051908101604052809291908181526020018280548015612a3757602002820191906000526020600020905b815481526020019060010190808311612a23575b50505050509050919050565b612a4b613ce7565b73ffffffffffffffffffffffffffffffffffffffff16612a69611592565b73ffffffffffffffffffffffffffffffffffffffff1614612abf576040517f08c379a0000000000000000000000000000000000000000000000000000000008152600401612ab690614de0565b60405180910390fd5b600073ffffffffffffffffffffffffffffffffffffffff168173ffffffffffffffffffffffffffffffffffffffff161415612b2f576040517f08c379a0000000000000000000000000000000000000000000000000000000008152600401612b2690614d20565b60405180910390fd5b612b3881613d35565b50565b6060600f805480602002602001604051908101604052809291908181526020018280548015612b8957602002820191906000526020600020905b815481526020019060010190808311612b75575b5050505050905090565b60008115612ba457600c9050612ba9565b600e90505b919050565b612bb6614384565b60006040518060c0016040528060095481526020018781526020018873ffffffffffffffffffffffffffffffffffffffff16815260200186151581526020018581526020018481525090506001600954612c109190614f79565b6009819055508091505095945050505050565b8060000151600b6000836020015181526020019081526020016000208190555080600a600083600001518152602001908152602001600020600082015181600001556020820151816001015560408201518160020160006101000a81548173ffffffffffffffffffffffffffffffffffffffff021916908373ffffffffffffffffffffffffffffffffffffffff16021790555060608201518160020160146101000a81548160ff0219169083151502179055506080820151816003015560a08201518160040155905050612cff8160a001518260600151611b60565b6000612d0e8260600151612b93565b90508060008360a001518152602001908152602001600020826000015190806001815401808255809150506001900390600052602060002001600090919091909150555050565b8015612d6957612d6482613e20565b612d73565b612d7282614046565b5b5050565b60008183612d859190614fcf565b90508315613416577f5136f0b0645440da828e58bd4667e082f3323762f139d86b11fea0a7e9a9e7418684600260009054906101000a900473ffffffffffffffffffffffffffffffffffffffff168885600360009054906101000a900473ffffffffffffffffffffffffffffffffffffffff1688604051612e0c9796959493929190614bb2565b60405180910390a160106040518060e001604052808873ffffffffffffffffffffffffffffffffffffffff168152602001858152602001600260009054906101000a900473ffffffffffffffffffffffffffffffffffffffff1673ffffffffffffffffffffffffffffffffffffffff1681526020018773ffffffffffffffffffffffffffffffffffffffff168152602001838152602001600360009054906101000a900473ffffffffffffffffffffffffffffffffffffffff1673ffffffffffffffffffffffffffffffffffffffff16815260200184815250908060018154018082558091505060019003906000526020600020906007020160009091909190915060008201518160000160006101000a81548173ffffffffffffffffffffffffffffffffffffffff021916908373ffffffffffffffffffffffffffffffffffffffff1602179055506020820151816001015560408201518160020160006101000a81548173ffffffffffffffffffffffffffffffffffffffff021916908373ffffffffffffffffffffffffffffffffffffffff16021790555060608201518160030160006101000a81548173ffffffffffffffffffffffffffffffffffffffff021916908373ffffffffffffffffffffffffffffffffffffffff1602179055506080820151816004015560a08201518160050160006101000a81548173ffffffffffffffffffffffffffffffffffffffff021916908373ffffffffffffffffffffffffffffffffffffffff16021790555060c08201518160060155505082600260009054906101000a900473ffffffffffffffffffffffffffffffffffffffff1673ffffffffffffffffffffffffffffffffffffffff1663dd62ed3e88306040518363ffffffff1660e01b81526004016130a8929190614b52565b60206040518083038186803b1580156130c057600080fd5b505afa1580156130d4573d6000803e3d6000fd5b505050506040513d601f19601f820116820180604052508101906130f89190614603565b1015613139576040517f08c379a000000000000000000000000000000000000000000000000000000000815260040161313090614cc0565b60405180910390fd5b80600360009054906101000a900473ffffffffffffffffffffffffffffffffffffffff1673ffffffffffffffffffffffffffffffffffffffff1663dd62ed3e87306040518363ffffffff1660e01b8152600401613197929190614b52565b60206040518083038186803b1580156131af57600080fd5b505afa1580156131c3573d6000803e3d6000fd5b505050506040513d601f19601f820116820180604052508101906131e79190614603565b1015613228576040517f08c379a000000000000000000000000000000000000000000000000000000000815260040161321f90614da0565b60405180910390fd5b6000600260009054906101000a900473ffffffffffffffffffffffffffffffffffffffff1673ffffffffffffffffffffffffffffffffffffffff166323b872dd8888876040518463ffffffff1660e01b815260040161328993929190614b7b565b602060405180830381600087803b1580156132a357600080fd5b505af11580156132b7573d6000803e3d6000fd5b505050506040513d601f19601f820116820180604052508101906132db9190614575565b90508061331d576040517f08c379a000000000000000000000000000000000000000000000000000000000815260040161331490614d60565b60405180910390fd5b600360009054906101000a900473ffffffffffffffffffffffffffffffffffffffff1673ffffffffffffffffffffffffffffffffffffffff166323b872dd8789856040518463ffffffff1660e01b815260040161337c93929190614b7b565b602060405180830381600087803b15801561339657600080fd5b505af11580156133aa573d6000803e3d6000fd5b505050506040513d601f19601f820116820180604052508101906133ce9190614575565b905080613410576040517f08c379a000000000000000000000000000000000000000000000000000000000815260040161340790614dc0565b60405180910390fd5b50613a9b565b7f5136f0b0645440da828e58bd4667e082f3323762f139d86b11fea0a7e9a9e7418682600360009054906101000a900473ffffffffffffffffffffffffffffffffffffffff168887600260009054906101000a900473ffffffffffffffffffffffffffffffffffffffff16886040516134959796959493929190614bb2565b60405180910390a160106040518060e001604052808873ffffffffffffffffffffffffffffffffffffffff168152602001838152602001600360009054906101000a900473ffffffffffffffffffffffffffffffffffffffff1673ffffffffffffffffffffffffffffffffffffffff1681526020018773ffffffffffffffffffffffffffffffffffffffff168152602001858152602001600260009054906101000a900473ffffffffffffffffffffffffffffffffffffffff1673ffffffffffffffffffffffffffffffffffffffff16815260200184815250908060018154018082558091505060019003906000526020600020906007020160009091909190915060008201518160000160006101000a81548173ffffffffffffffffffffffffffffffffffffffff021916908373ffffffffffffffffffffffffffffffffffffffff1602179055506020820151816001015560408201518160020160006101000a81548173ffffffffffffffffffffffffffffffffffffffff021916908373ffffffffffffffffffffffffffffffffffffffff16021790555060608201518160030160006101000a81548173ffffffffffffffffffffffffffffffffffffffff021916908373ffffffffffffffffffffffffffffffffffffffff1602179055506080820151816004015560a08201518160050160006101000a81548173ffffffffffffffffffffffffffffffffffffffff021916908373ffffffffffffffffffffffffffffffffffffffff16021790555060c08201518160060155505080600360009054906101000a900473ffffffffffffffffffffffffffffffffffffffff1673ffffffffffffffffffffffffffffffffffffffff1663dd62ed3e88306040518363ffffffff1660e01b8152600401613731929190614b52565b60206040518083038186803b15801561374957600080fd5b505afa15801561375d573d6000803e3d6000fd5b505050506040513d601f19601f820116820180604052508101906137819190614603565b10156137c2576040517f08c379a00000000000000000000000000000000000000000000000000000000081526004016137b990614d40565b60405180910390fd5b82600260009054906101000a900473ffffffffffffffffffffffffffffffffffffffff1673ffffffffffffffffffffffffffffffffffffffff1663dd62ed3e87306040518363ffffffff1660e01b8152600401613820929190614b52565b60206040518083038186803b15801561383857600080fd5b505afa15801561384c573d6000803e3d6000fd5b505050506040513d601f19601f820116820180604052508101906138709190614603565b10156138b1576040517f08c379a00000000000000000000000000000000000000000000000000000000081526004016138a890614e40565b60405180910390fd5b6000600360009054906101000a900473ffffffffffffffffffffffffffffffffffffffff1673ffffffffffffffffffffffffffffffffffffffff166323b872dd8888856040518463ffffffff1660e01b815260040161391293929190614b7b565b602060405180830381600087803b15801561392c57600080fd5b505af1158015613940573d6000803e3d6000fd5b505050506040513d601f19601f820116820180604052508101906139649190614575565b9050806139a6576040517f08c379a000000000000000000000000000000000000000000000000000000000815260040161399d90614d60565b60405180910390fd5b600260009054906101000a900473ffffffffffffffffffffffffffffffffffffffff1673ffffffffffffffffffffffffffffffffffffffff166323b872dd8789876040518463ffffffff1660e01b8152600401613a0593929190614b7b565b602060405180830381600087803b158015613a1f57600080fd5b505af1158015613a33573d6000803e3d6000fd5b505050506040513d601f19601f82011682018060405250810190613a579190614575565b905080613a99576040517f08c379a0000000000000000000000000000000000000000000000000000000008152600401613a9090614dc0565b60405180910390fd5b505b505050505050565b6040518060400160405280600881526020017f636c65616e5f757000000000000000000000000000000000000000000000000081525060119080519060200190613aee92919061426c565b5060005b600d80549050811015613be9576000600d8281548110613b3b577f4e487b7100000000000000000000000000000000000000000000000000000000600052603260045260246000fd5b906000526020600020015490506000600c60008381526020019081526020016000209050600081805490501415613bd457600c60008381526020019081526020016000206000613b8b919061433f565b600d8381548110613bc5577f4e487b7100000000000000000000000000000000000000000000000000000000600052603260045260246000fd5b90600052602060002001600090555b50508080613be19061518f565b915050613af2565b5060005b600f80549050811015613ce4576000600f8281548110613c36577f4e487b7100000000000000000000000000000000000000000000000000000000600052603260045260246000fd5b906000526020600020015490506000600e60008381526020019081526020016000209050600081805490501415613ccf57600e60008381526020019081526020016000206000613c86919061433f565b600f8381548110613cc0577f4e487b7100000000000000000000000000000000000000000000000000000000600052603260045260246000fd5b90600052602060002001600090555b50508080613cdc9061518f565b915050613bed565b50565b600033905090565b60008111613d32576040517f08c379a0000000000000000000000000000000000000000000000000000000008152600401613d2990614c80565b60405180910390fd5b50565b60008060009054906101000a900473ffffffffffffffffffffffffffffffffffffffff169050816000806101000a81548173ffffffffffffffffffffffffffffffffffffffff021916908373ffffffffffffffffffffffffffffffffffffffff1602179055508173ffffffffffffffffffffffffffffffffffffffff168173ffffffffffffffffffffffffffffffffffffffff167f8be0079c531659141344cd1fd0a4f28419497f9722a3daafe3b4186f6b6457e060405160405180910390a35050565b613e0281613cef565b50565b60008115613e1657600d9050613e1b565b600f90505b919050565b60005b600d80549050811015614042576000600d8281548110613e6c577f4e487b7100000000000000000000000000000000000000000000000000000000600052603260045260246000fd5b906000526020600020015490506000600c600083815260200190815260200160002090506000805b828054905081101561401d5785838281548110613eda577f4e487b7100000000000000000000000000000000000000000000000000000000600052603260045260246000fd5b9060005260206000200154141561400a5760008590505b60018480549050613f029190615029565b811015613fb35783600182613f179190614f79565b81548110613f4e577f4e487b7100000000000000000000000000000000000000000000000000000000600052603260045260246000fd5b9060005260206000200154848281548110613f92577f4e487b7100000000000000000000000000000000000000000000000000000000600052603260045260246000fd5b90600052602060002001819055508080613fab9061518f565b915050613ef1565b5082805480613feb577f4e487b7100000000000000000000000000000000000000000000000000000000600052603160045260246000fd5b600190038181906000526020600020016000905590556001915061401d565b80806140159061518f565b915050613e94565b50801561402c57505050614042565b505050808061403a9061518f565b915050613e23565b5050565b60005b600f80549050811015614268576000600f8281548110614092577f4e487b7100000000000000000000000000000000000000000000000000000000600052603260045260246000fd5b906000526020600020015490506000600e600083815260200190815260200160002090506000805b82805490508110156142435785838281548110614100577f4e487b7100000000000000000000000000000000000000000000000000000000600052603260045260246000fd5b906000526020600020015414156142305760008590505b600184805490506141289190615029565b8110156141d9578360018261413d9190614f79565b81548110614174577f4e487b7100000000000000000000000000000000000000000000000000000000600052603260045260246000fd5b90600052602060002001548482815481106141b8577f4e487b7100000000000000000000000000000000000000000000000000000000600052603260045260246000fd5b906000526020600020018190555080806141d19061518f565b915050614117565b5082805480614211577f4e487b7100000000000000000000000000000000000000000000000000000000600052603160045260246000fd5b6001900381819060005260206000200160009055905560019150614243565b808061423b9061518f565b9150506140ba565b50801561425257505050614268565b50505080806142609061518f565b915050614049565b5050565b8280546142789061510f565b90600052602060002090601f01602090048101928261429a57600085556142e1565b82601f106142b357805160ff19168380011785556142e1565b828001600101855582156142e1579182015b828111156142e05782518255916020019190600101906142c5565b5b5090506142ee91906143d2565b5090565b82805482825590600052602060002090810192821561432e579160200282015b8281111561432d578251825591602001919060010190614312565b5b50905061433b91906143d2565b5090565b508054600082559060005260206000209081019061435d91906143d2565b50565b508054600082556007029060005260206000209081019061438191906143ef565b50565b6040518060c001604052806000815260200160008152602001600073ffffffffffffffffffffffffffffffffffffffff16815260200160001515815260200160008152602001600081525090565b5b808211156143eb5760008160009055506001016143d3565b5090565b5b808211156144b657600080820160006101000a81549073ffffffffffffffffffffffffffffffffffffffff021916905560018201600090556002820160006101000a81549073ffffffffffffffffffffffffffffffffffffffff02191690556003820160006101000a81549073ffffffffffffffffffffffffffffffffffffffff021916905560048201600090556005820160006101000a81549073ffffffffffffffffffffffffffffffffffffffff02191690556006820160009055506007016143f0565b5090565b6000813590506144c9816155fb565b92915050565b6000813590506144de81615612565b92915050565b6000815190506144f381615612565b92915050565b60008135905061450881615629565b92915050565b60008151905061451d81615629565b92915050565b60006020828403121561453557600080fd5b6000614543848285016144ba565b91505092915050565b60006020828403121561455e57600080fd5b600061456c848285016144cf565b91505092915050565b60006020828403121561458757600080fd5b6000614595848285016144e4565b91505092915050565b600080604083850312156145b157600080fd5b60006145bf858286016144cf565b92505060206145d0858286016144f9565b9150509250929050565b6000602082840312156145ec57600080fd5b60006145fa848285016144f9565b91505092915050565b60006020828403121561461557600080fd5b60006146238482850161450e565b91505092915050565b6000806040838503121561463f57600080fd5b600061464d858286016144f9565b925050602061465e858286016144cf565b9150509250929050565b6000806000806080858703121561467e57600080fd5b600061468c878288016144f9565b945050602061469d878288016144cf565b93505060406146ae878288016144f9565b92505060606146bf878288016144f9565b91505092959194509250565b60006146d78383614b19565b60208301905092915050565b6146ec81615094565b82525050565b6146fb81615094565b82525050565b600061470c82614f34565b6147168185614f57565b935061472183614f24565b8060005b8381101561475257815161473988826146cb565b975061474483614f4a565b925050600181019050614725565b5085935050505092915050565b614768816150a6565b82525050565b614777816150a6565b82525050565b600061478882614f3f565b6147928185614f68565b93506147a28185602086016150dc565b6147ab81615236565b840191505092915050565b60006147c3601283614f68565b91506147ce82615261565b602082019050919050565b60006147e6602083614f68565b91506147f18261528a565b602082019050919050565b6000614809603783614f68565b9150614814826152b3565b604082019050919050565b600061482c602383614f68565b915061483782615302565b604082019050919050565b600061484f601183614f68565b915061485a82615351565b602082019050919050565b6000614872602683614f68565b915061487d8261537a565b604082019050919050565b6000614895603883614f68565b91506148a0826153c9565b604082019050919050565b60006148b8601183614f68565b91506148c382615418565b602082019050919050565b60006148db601683614f68565b91506148e682615441565b602082019050919050565b60006148fe602683614f68565b91506149098261546a565b604082019050919050565b6000614921601183614f68565b915061492c826154b9565b602082019050919050565b6000614944602083614f68565b915061494f826154e2565b602082019050919050565b6000614967601a83614f68565b91506149728261550b565b602082019050919050565b600061498a602383614f68565b915061499582615534565b604082019050919050565b60006149ad603683614f68565b91506149b882615583565b604082019050919050565b60006149d0601983614f68565b91506149db826155d2565b602082019050919050565b60c0820160008201516149fc6000850182614b19565b506020820151614a0f6020850182614b19565b506040820151614a2260408501826146e3565b506060820151614a35606085018261475f565b506080820151614a486080850182614b19565b5060a0820151614a5b60a0850182614b19565b50505050565b60c082016000808301549050614a768161515b565b614a836000860182614b19565b5060018301549050614a948161515b565b614aa16020860182614b19565b5060028301549050614ab281615141565b614abf60408601826146e3565b50614ac981615175565b614ad6606086018261475f565b5060038301549050614ae78161515b565b614af46080860182614b19565b5060048301549050614b058161515b565b614b1260a0860182614b19565b5050505050565b614b22816150d2565b82525050565b614b31816150d2565b82525050565b6000602082019050614b4c60008301846146f2565b92915050565b6000604082019050614b6760008301856146f2565b614b7460208301846146f2565b9392505050565b6000606082019050614b9060008301866146f2565b614b9d60208301856146f2565b614baa6040830184614b28565b949350505050565b600060e082019050614bc7600083018a6146f2565b614bd46020830189614b28565b614be160408301886146f2565b614bee60608301876146f2565b614bfb6080830186614b28565b614c0860a08301856146f2565b614c1560c0830184614b28565b98975050505050505050565b60006020820190508181036000830152614c3b8184614701565b905092915050565b6000602082019050614c58600083018461476e565b92915050565b60006020820190508181036000830152614c78818461477d565b905092915050565b60006020820190508181036000830152614c99816147b6565b9050919050565b60006020820190508181036000830152614cb9816147d9565b9050919050565b60006020820190508181036000830152614cd9816147fc565b9050919050565b60006020820190508181036000830152614cf98161481f565b9050919050565b60006020820190508181036000830152614d1981614842565b9050919050565b60006020820190508181036000830152614d3981614865565b9050919050565b60006020820190508181036000830152614d5981614888565b9050919050565b60006020820190508181036000830152614d79816148ab565b9050919050565b60006020820190508181036000830152614d99816148ce565b9050919050565b60006020820190508181036000830152614db9816148f1565b9050919050565b60006020820190508181036000830152614dd981614914565b9050919050565b60006020820190508181036000830152614df981614937565b9050919050565b60006020820190508181036000830152614e198161495a565b9050919050565b60006020820190508181036000830152614e398161497d565b9050919050565b60006020820190508181036000830152614e59816149a0565b9050919050565b60006020820190508181036000830152614e79816149c3565b9050919050565b600060c082019050614e9560008301846149e6565b92915050565b600060c082019050614eb06000830184614a61565b92915050565b6000602082019050614ecb6000830184614b28565b92915050565b600060a082019050614ee66000830188614b28565b614ef360208301876146f2565b614f00604083018661476e565b614f0d6060830185614b28565b614f1a6080830184614b28565b9695505050505050565b6000819050602082019050919050565b600081519050919050565b600081519050919050565b6000602082019050919050565b600082825260208201905092915050565b600082825260208201905092915050565b6000614f84826150d2565b9150614f8f836150d2565b9250827fffffffffffffffffffffffffffffffffffffffffffffffffffffffffffffffff03821115614fc457614fc36151d8565b5b828201905092915050565b6000614fda826150d2565b9150614fe5836150d2565b9250817fffffffffffffffffffffffffffffffffffffffffffffffffffffffffffffffff048311821515161561501e5761501d6151d8565b5b828202905092915050565b6000615034826150d2565b915061503f836150d2565b925082821015615052576150516151d8565b5b828203905092915050565b600073ffffffffffffffffffffffffffffffffffffffff82169050919050565b600060ff82169050919050565b6000819050919050565b600061509f826150b2565b9050919050565b60008115159050919050565b600073ffffffffffffffffffffffffffffffffffffffff82169050919050565b6000819050919050565b60005b838110156150fa5780820151818401526020810190506150df565b83811115615109576000848401525b50505050565b6000600282049050600182168061512757607f821691505b6020821081141561513b5761513a615207565b5b50919050565b600061515461514f83615247565b61505d565b9050919050565b600061516e61516983615247565b61508a565b9050919050565b600061518861518383615254565b61507d565b9050919050565b600061519a826150d2565b91507fffffffffffffffffffffffffffffffffffffffffffffffffffffffffffffffff8214156151cd576151cc6151d8565b5b600182019050919050565b7f4e487b7100000000000000000000000000000000000000000000000000000000600052601160045260246000fd5b7f4e487b7100000000000000000000000000000000000000000000000000000000600052602260045260246000fd5b6000601f19601f8301169050919050565b60008160001c9050919050565b60008160a01c9050919050565b7f416d6f756e74206d757374206265203e20300000000000000000000000000000600082015250565b7f45787465726e616c206f7264657220696420616c726561647920657869737473600082015250565b7f7b4275797d204e6f7420656e6f7567682066756e647320666f7220736574746c60008201527f656d656e7420666f72206d6174636865645f6f776e6572000000000000000000602082015250565b7f43726f737365642073656c6c207072696365203c20626573742062757920707260008201527f6963650000000000000000000000000000000000000000000000000000000000602082015250565b7f5072696365206d757374206265203e2030000000000000000000000000000000600082015250565b7f4f776e61626c653a206e6577206f776e657220697320746865207a65726f206160008201527f6464726573730000000000000000000000000000000000000000000000000000602082015250565b7f7b4275797d204e6f7420656e6f7567682066756e647320666f7220736574746c60008201527f656d656e742066726f6d206d6174636865645f6f776e65720000000000000000602082015250565b7f5472616e736665722031206661696c6564000000000000000000000000000000600082015250565b7f43616e6e6f74206d61746368206f776e206f7264657200000000000000000000600082015250565b7f7b4275797d204e6f7420656e6f7567682066756e647320666f72206f7264657260008201527f5f6f776e65720000000000000000000000000000000000000000000000000000602082015250565b7f5472616e736665722032206661696c6564000000000000000000000000000000600082015250565b7f4f776e61626c653a2063616c6c6572206973206e6f7420746865206f776e6572600082015250565b7f5061727469636970616e74206973206e6f7420616c6c6f776564000000000000600082015250565b7f43726f7373656420627579207072696365203e20626573742073656c6c20707260008201527f6963650000000000000000000000000000000000000000000000000000000000602082015250565b7f7b4275797d204e6f7420656e6f7567682066756e647320666f7220736574746c60008201527f656d656e742066726f6d206f726465725f6f776e657200000000000000000000602082015250565b7f54726164696e6720686173206265656e2064697361626c656400000000000000600082015250565b61560481615094565b811461560f57600080fd5b50565b61561b816150a6565b811461562657600080fd5b50565b615632816150d2565b811461563d57600080fd5b5056fe73746f72696e67206c696d6974206f7264657220286e6f206f70706f73697465206f72646572296d617463686564207363656e6172696f2e20656d697474696e67204f72646572557064617465644576656e746d617463686564207363656e6172696f2e2073697a65206c6566742e20656d697474696e67204f72646572506c616365644576656e746d617463686564207363656e6172696f2e2073697a65206c6566742e20656d697474696e67204f72646572557064617465644576656e7473746f726564206c696d6974206f726465722e20656d697474696e67206576656e742020286e6f206f70706f73697465206f7264657229a2646970667358221220909aa7e1b3e725a5b9c7784e8514a6a632b4ee4914cb4f2e772e6f79b6482cae64736f6c63430008040033",
  "linkReferences": {},
  "deployedLinkReferences": {}
}